:100000000C9434000C9451000C9451000C94510049
:100010000C948C000C9451000C9451000C94A80189
:100020000C9451000C9451000C9451000C9451000C
:100030000C9451000C9451000C940B020C94510040
:100040000C9451000C9451000C945D070C945100D9
:100050000C9451000C9451000C9451000C945100DC
:100060000C9451000C94510011241FBECFEFD8E026
:10007000DEBFCDBF16E0A0E0B1E0E2ECF0E102C0EF
:1000800005900D92A235B107D9F726E0A2E5B6E0BA
:1000900001C01D92A837B207E1F70E94DD000C9461
:1000A0005F080C94000080E480937C0087E88093D4
:1000B0007A0008958770ECE7F0E09081987F892BB3
:1000C0008083EAE7F0E080818064808380917A0019
:1000D00086FDFCCF8091780090917900089584B1DD
:1000E000816084B98AB180688AB985B18E7F85B90B
:1000F0008BB18F778BB987B18E7F87B988B18160DB
:1001000088B9E8E6F0E0808182608083ECE6F0E088
:1001100080818160808308951F920F920FB60F92A5
:1001200011242F938F939F9330990EC02FEF89EF57
:1001300090E0215080409040E1F700C000003099ED
:1001400003C081E0809352069F918F912F910F9071
:100150000FBE0F901F901895CF93DF9385B18160EC
:1001600085B98BB180688BB9C8E0D1E0688188E13E
:1001700090E00E944D08698189E190E00E944D085D
:100180006A818AE190E00E944D086B818BE190E0EA
:100190000E944D086C818CE190E00E944D086D81B9
:1001A0008DE190E00E944D0885B18E7F85B98BB1BD
:1001B0008F778BB9DF91CF910895F8940E948B03CC
:1001C0000E9400020E9473010E9497010E94530046
:1001D0000E946F0078940E94C60380915206882383
:1001E00021F0109252060E94AC008091580688239C
:1001F00021F0109258060E94F30380915906833033
:1002000061F782E00E945A00EC0183E00E945A00EC
:100210005C0184E00E945A006C0185E00E945A0053
:100220007C0186E00E945A008C0187E00E945A00FF
:100230004C01CE010E947E03C8E0D1E08883C50155
:100240000E947E038983C6010E947E038A83C701C0
:100250000E947E038B83C8010E947E038C83C401AD
:100260000E947E038D830E94FE02B7CF90E001972B
:10027000982F990F980F892F880F0895CF92DF92AA
:10028000EF92FF920F931F93CF93DF93D62EF42E0E
:10029000122F0E943601C82FD0E06D2DCE010E9492
:1002A0004D086F2DCE0101960E944D08612FCE01A1
:1002B00002960E944D08602FCE0103960E944D08C1
:1002C0006E2DCE0104960E944D086C2DCE01059630
:1002D0000E944D08DF91CF911F910F91FF90EF90F9
:1002E000DF90CF90089584B1866084B982EA8093CC
:1002F00080008AE1809381008FE39CE990938700DE
:100300008093860088EB9BE090938900809388001F
:1003100090938B0080938A00089590938900809336
:100320008800089590938B0080938A0008958AB185
:1003300088608AB984B1886084B982E08093B00013
:100340008093B10097E29093B3008093700008957A
:100350001F920F920FB60F9211242F933F938F93FA
:100360009F93809153069091540601969093540662
:10037000809353068091530690915406019731F46F
:100380008BB188608BB985B1886085B9209153069F
:10039000309154068091020190910301281739078A
:1003A00019F48BB1877F8BB9209153063091540695
:1003B00080910001909101012817390719F485B146
:1003C000877F85B98091530690915406883E93406B
:1003D00020F010925406109253069F918F913F91F6
:1003E0002F910F900FBE0F901F90189590930301BF
:1003F0008093020108959093010180930001089574
:100400008AB180668AB982E084BD85BD97E297BDD6
:1004100080936E0008951F920F920FB60F921124D1
:100420002F933F938F939F938091550690915606FB
:1004300001969093560680935506809155069091AB
:100440005606019731F48BB180648BB98BB1806211
:100450008BB92091550630915606809106019091F6
:1004600007012817390719F48BB18F7B8BB92091BD
:100470005506309156068091040190910501281788
:10048000390719F48BB18F7D8BB980915506909106
:100490005606883E934020F010925606109255065C
:1004A0009F918F913F912F910F900FBE0F901F90B2
:1004B0001895909307018093060108959093050184
:1004C0008093040108950F931F93CF93DF93CDB7CB
:1004D000DEB72A970FB6F894DEBF0FBECDBF8EE011
:1004E00091E00E94B30385E291E00E94B30308E02B
:1004F00011E0F80180814AE0BE016F5F7F4F90E01C
:100500000E940808CE0101960E94B3038FE592E095
:100510000E94B3038CE291E00E94B303F801818151
:100520004AE0BE016F5F7F4F90E00E940808CE0155
:1005300001960E94B3038FE592E00E94B30383E328
:1005400091E00E94B303F80182814AE0BE016F5F2F
:100550007F4F90E00E940808CE0101960E94B303ED
:100560008FE592E00E94B3038AE391E00E94B30317
:10057000F80183814AE0BE016F5F7F4F90E00E94E7
:100580000808CE0101960E94B3038FE592E00E9415
:10059000B30381E491E00E94B303F80184814AE04F
:1005A000BE016F5F7F4F90E00E940808CE01019668
:1005B0000E94B3038FE592E00E94B30388E491E0C8
:1005C0000E94B303F80185814AE0BE016F5F7F4F4F
:1005D00090E00E940808CE0101960E94B3038FE5C7
:1005E00092E00E94B3032A960FB6F894DEBF0FBEC6
:1005F000CDBFDF91CF911F910F910895CF93DF93DE
:10060000C8E0D1E088810E945F030E948D0189814A
:100610000E945F030E9492018A810E946F0390E012
:100620000E9459028B810E946F0390E00E945E023B
:100630008C810E946F0390E00E94F6018D810E94E0
:100640006F0390E00E94FB01DF91CF9108950F931B
:100650001F93CF93DF9390E00197982F990F890F05
:10066000C82FCC0FD0E0CE010E94450808E011E071
:10067000F8018083CE0101960E944508F80181832C
:10068000CE0102960E944508F8018283CE010396AE
:100690000E944508F8018383CE0104960E94450814
:1006A000F8018483CE0105960E944508F8018583F0
:1006B0000E94FE02DF91CF911F910F910895282F84
:1006C00030E0A0EDB7E00E94C40724EB30E040E04A
:1006D00050E00E94A207C9018053984F0895282F27
:1006E00030E0A2E3B0E00E94C40724EB30E040E039
:1006F00050E00E94A207C901C29608959C01A4EB94
:10070000B0E00E94C4072FEF33E040E050E00E94C9
:10071000A207822F089584B1816084B98AB180686C
:100720008AB985B18E7F85B98BB18F778BB98AB144
:100730008E7F8AB98AB182608AB91092C00088E936
:100740008093C10086E08093C20087E690E090939A
:10075000C5008093C40008959091C00095FFFCCF20
:100760008093C60008950F931F93CF938C01C0E030
:1007700003C00E94AC03CF5FF801EC0FF11D808134
:100780008111F7CFCF911F910F9108958FE592E0DE
:100790000E94B3038FE491E00E94B30383E791E0EA
:1007A0000E94B3038EE891E00E94B3038DEA91E0CA
:1007B0000E94B30380ED91E00E94B30389EE91E0C3
:1007C0000E94B30388E092E00E94B3038CE292E0BF
:1007D0000E94B30382E692E00E94B30380E391E0BB
:1007E0000E94B3030895CF92EF920F93CF9380911D
:1007F00059068111CDC061E772E084E696E00E945F
:10080000F107892B11F58BB180688BB985B18E7F8B
:1008100085B981E08093590683E792E00E94B30393
:1008200081E892E00E94B3038EE892E00E94B30355
:100830008BE992E00E94B30388EA92E00E94B3033E
:1008400085EB92E00E94B30333C365EC72E084E66B
:1008500096E00E94F107892BD1F48BB180688BB9A7
:1008600085B18E7F85B982E08093590687EC92E04E
:100870000E94B30389ED92E00E94B30386EE92E0FA
:100880000E94B30385EB92E00E94B30311C363EFB0
:1008900072E084E696E00E94F107892B31F58BB176
:1008A00080688BB985B1816085B984E080935906F1
:1008B00085EF92E00E94B3038BE193E00E94B303C3
:1008C00086E393E00E94B3038EE593E00E94B303B6
:1008D00087E893E00E94B30383EA93E00E94B303A6
:1008E00085EB92E00E94B303E3C26AEC73E084E616
:1008F00096E00E94F107892BB1F48BB18F778BB909
:1009000085B1816085B983E0809359068CEC93E0D2
:100910000E94B3038EED93E00E94B30385EB92E057
:100920000E94B303C5C267EF73E084E696E00E94BD
:10093000F107892B31F58BB180688BB985B1816066
:1009400085B985E08093590689EF93E00E94B3034F
:100950008BE194E00E94B30384E394E00E94B3032C
:100960008DE494E00E94B30386E694E00E94B30312
:100970008FE794E00E94B30385EB92E00E94B303FB
:1009800097C288E994E00E94B3030E94C60390C214
:1009900080915906813009F0C9C08BB180688BB94C
:1009A00085B18E7F85B943E050E06AEA74E084E661
:1009B00096E00E94FA07892B09F587E696E00E94E7
:1009C000D307C82F853B08F0C4EB8C2F0E945F0330
:1009D0000E948D0185E291E00E94B3034AE06AE53E
:1009E00076E08C2F90E00E9408088AE596E00E944D
:1009F000B3038FE592E00E94B3035AC243E050E094
:100A00006EEA74E084E696E00E94FA07892B09F505
:100A100087E696E00E94D307C82F853B08F0C4EB19
:100A20008C2F0E945F030E9492018CE291E00E9451
:100A3000B3034AE06AE576E08C2F90E00E94080854
:100A40008AE596E00E94B3038FE592E00E94B3032B
:100A50002FC243E050E062EB74E084E696E00E942F
:100A6000FA07892B11F587E696E00E94D307C82F75
:100A7000853B08F0C4EB8C2F0E946F0390E00E942E
:100A8000590283E391E00E94B3034AE06AE576E00D
:100A90008C2F90E00E9408088AE596E00E94B3033C
:100AA0008FE592E00E94B30303C243E050E066EB9F
:100AB00074E084E696E00E94FA07892B11F587E638
:100AC00096E00E94D307C82F853B08F0C4EB8C2F1B
:100AD0000E946F0390E00E945E028AE391E00E9410
:100AE000B3034AE06AE576E08C2F90E00E940808A4
:100AF0008AE596E00E94B3038FE592E00E94B3037B
:100B0000D7C16AEB74E084E696E00E94F107892B76
:100B100041F48BB18F778BB9109259060E94C603AE
:100B2000C7C18CEB94E00E94B303C2C18091590607
:100B3000823009F073C08BB180688BB985B18E7F2C
:100B400085B943E050E06FEC74E084E696E00E94E3
:100B5000FA07892B11F587E696E00E94D307C82F84
:100B6000853B08F0C4EB8C2F0E946F0390E00E943D
:100B7000F60181E491E00E94B3034AE06AE576E081
:100B80008C2F90E00E9408088AE596E00E94B3034B
:100B90008FE592E00E94B3038BC143E050E063ED28
:100BA00074E084E696E00E94FA07892B11F587E647
:100BB00096E00E94D307C82F853B08F0C4EB8C2F2A
:100BC0000E946F0390E00E94FB0188E491E00E9484
:100BD000B3034AE06AE576E08C2F90E00E940808B3
:100BE0008AE596E00E94B3038FE592E00E94B3038A
:100BF0005FC16AEB74E084E696E00E94F107892BFE
:100C000041F48BB18F778BB9109259060E94C603BD
:100C10004FC18CEB94E00E94B3034AC18091590606
:100C20008330D9F48BB18F778BB985B18E7F85B93D
:100C30006AEB74E084E696E00E94F107892B09F0E4
:100C400037C185B18F7785B91092590687ED94E049
:100C50000E94B3030E94C6032BC1809159068430C1
:100C600009F08CC061E772E084E696E00E94F1072B
:100C7000892BA1F48BB180688BB985B1816085B96E
:100C80008BEE94E00E94B30381E00E9427030E9450
:100C9000630280E195E00E94B3030AC165EC72E053
:100CA00084E696E00E94F107892B71F484E295E0D6
:100CB0000E94B30382E00E9427030E94630280E146
:100CC00095E00E94B303F4C063EF72E084E696E01F
:100CD0000E94F107892B71F486E595E00E94B30329
:100CE00083E00E9427030E94630280E195E00E9456
:100CF000B303DEC06AEC73E084E696E00E94F1077D
:100D0000892B71F489E895E00E94B30384E00E9486
:100D100027030E94630280E195E00E94B303C8C0EC
:100D200067EF73E084E696E00E94F107892B71F487
:100D30008FEA95E00E94B30385E00E9427030E949A
:100D4000630280E195E00E94B303B2C06AEB74E0F5
:100D500084E696E00E94F107892B59F485B18E7FD5
:100D600085B98BB18F778BB9109259060E94C60353
:100D70009FC088E994E00E94B3039AC0809159060D
:100D8000853009F095C061E772E084E696E00E9444
:100D9000F107892BB1F48BB180688BB985B1816083
:100DA00085B983EE95E00E94B303E8E0F1E0C580E9
:100DB000E480038122814181608181E00E943E01C3
:100DC00077C065EC72E084E696E00E94F107892B1B
:100DD00081F489EF95E00E94B303E8E0F1E0C5807B
:100DE000E480038122814181608182E00E943E0192
:100DF0005FC063EF72E084E696E00E94F107892B02
:100E000081F48FE096E00E94B303E8E0F1E0C58052
:100E1000E480038122814181608183E00E943E0160
:100E200047C06AEC73E084E696E00E94F107892BE4
:100E300081F485E296E00E94B303E8E0F1E0C5802A
:100E4000E480038122814181608184E00E943E012F
:100E50002FC067EF73E084E696E00E94F107892BCC
:100E600081F48BE396E00E94B303E8E0F1E0C580F3
:100E7000E480038122814181608185E00E943E01FE
:100E800017C06AEB74E084E696E00E94F107892BB4
:100E900059F485B18E7F85B98BB18F778BB910925C
:100EA00059060E94C60304C088E994E00E94B30377
:100EB000CF910F91EF90CF9008951F920F920FB6A0
:100EC0000F9211242F933F934F935F936F937F93D0
:100ED0008F939F93AF93BF93CF93EF93FF93C09163
:100EE000C6008C2F0E94AC03CB3361F4E09157060F
:100EF000F0E0EC59F94F10821092570681E0809390
:100F000058060EC080915706833150F4E091570681
:100F100081E08E0F80935706F0E0EC59F94FC083C3
:100F2000FF91EF91CF91BF91AF919F918F917F9161
:100F30006F915F914F913F912F910F900FBE0F9046
:100F40001F901895A1E21A2EAA1BBB1BFD010DC014
:100F5000AA1FBB1FEE1FFF1FA217B307E407F50769
:100F600020F0A21BB30BE40BF50B661F771F881F45
:100F7000991F1A9469F760957095809590959B01DB
:100F8000AC01BD01CF010895A29FB001B39FC00184
:100F9000A39F700D811D1124911DB29F700D811DA5
:100FA0001124911D0895FC0188279927E894219127
:100FB0002032E9F3293010F02E30C8F32B3241F003
:100FC0002D3239F4689404C00E941308820F911DD9
:100FD000219120532A30C0F31EF4909581959F4FA4
:100FE0000895FB01DC018D91019080190110D9F366
:100FF000990B0895FB01DC014150504030F08D9178
:101000000190801919F40020B9F7881B990B0895F5
:10101000BB274A3031F4992322F4BDE290958195A3
:101020009F4F0C941C087AE0979F902D879F802DEE
:10103000910D11240895BB27FB015527AA27880F7E
:10104000991FAA1FA41710F0A41B83955051B9F73C
:10105000A05DAA3308F0A95DA193009779F7B111BB
:10106000B1931192CB010C943508DC01FC01672F80
:1010700071917723E1F7329704C07C916D9370836F
:101080006291AE17BF07C8F30895F999FECF92BDDC
:1010900081BDF89A992780B50895262FF999FECF3A
:1010A00092BD81BDF89A019700B4021639F01FBABB
:1010B00020BD0FB6F894FA9AF99A0FBE0895F894E5
:0210C000FFCF60
:1010C2004B004B004B004B005A5A5A5A5A5A0D0ABF
:1010D2003D3D3D3D3D20454550524F4D203D3D3D1E
:1010E2003D3D0D0A004931202D3E20004431202D86
:1010F2003E20004932202D3E20004432202D3E2049
:10110200004D31202D3E20004D32202D3E20003D4D
:101112003D3D3D3D3D3D204D454E5520414E494DC5
:101122004154524F4E49434F203D3D3D3D3D3D3D93
:101132000D0A0031203E20436F6E74726F6C206482
:1011420065204F6A6F7320554152540D0A003220B8
:101152003E20436F6E74726F6C2064652050617222
:101162007061646F7320554152540D0A0033203E62
:1011720020526570726F647563697220506F736973
:1011820063696F6E657320454550524F4D0D0A00DD
:1011920034203E20436F6E74726F6C204D616E7509
:1011A200616C204144430D0A0035203E20456469AC
:1011B20074617220506F736963696F6E6573204545
:1011C2004550524F4D0D0A003D3D3D3D3D3D3D3D9B
:1011D2003D3D3D3D3D3D3D3D3D3D3D3D3D3D3D3D3D
:1011E2003D3D3D3D3D3D3D3D3D0D0A005072657327
:1011F200696F6E6120656C206EFA6D65726F206496
:1012020065206C61206F706369F36E20792061F153
:1012120061646520616C2066696E616C203B200D03
:101222000A00456A656D706C6F3A20313B200D0AE9
:101232000031000D0A4D6F646F204F4A4F530D0A63
:101242000049313A616E67756C6F3B0D0A0044319B
:101252003A616E67756C6F3B0D0A0049323A616EF6
:1012620067756C6F3B0D0A0044323A616E67756CAC
:101272006F3B0D0A00783B20706172612073616CD4
:1012820069720D0A0032000D0A4D6F646F205041E1
:10129200525041444F530D0A004D313A616E677509
:1012A2006C6F3B0D0A004D323A616E67756C6F3B95
:1012B2000D0A0033000D0A3D3D3D3D3D2052455093
:1012C200524F445543495220504F534943494F4E80
:1012D2004553203D3D3D3D3D0D0A00313B203E2022
:1012E200506F736963696F6E20313A536F72707217
:1012F2006573610D0A00323B203E20506F736963B3
:10130200696F6E20323A4E65757472616C2076692F
:10131200656E646F204C61646F20440D0A00333B9C
:10132200203E20506F736963696F6E20333A4E65B9
:10133200757472616C207669656E646F204C6164AD
:101342006F20697A0D0A00343B203E20506F73698A
:1013520063696F6E20343A4475726D69656E646FAD
:101362000D0A00353B203E20506F736963696F6E32
:1013720020353A4564697461626C6520706F722031
:101382007573756172696F0D0A0034004D6F646F79
:1013920020414443204D616E75616C0D0A00506F0F
:1013A20074656E63696F6D6574726F7320616374C7
:1013B20069766F730D0A0035000D0A3D3D3D3D3DD6
:1013C2002045444954415220504F534943494F4EBE
:1013D2004553203D3D3D3D3D0D0A00313B203E2021
:1013E20045646974617220506F736963696F6E201E
:1013F200310D0A00323B203E20456469746172203F
:10140200506F736963696F6E20320D0A00333B209F
:101412003E2045646974617220506F736963696F1D
:101422006E20330D0A00343B203E2045646974610E
:101432007220506F736963696F6E20340D0A003534
:101442003B203E2045646974617220506F7369636A
:10145200696F6E20350D0A004F7063696F6E2069E7
:101462006E76616C6964610D0A0049313A0044315B
:101472003A0049323A0044323A007800436F6D61D3
:101482006E646F20696E76616C69646F0D0A004D3F
:10149200313A004D323A0053616C69656E646F20D7
:1014A2006D6F646F204144430D0A00526570726F84
:1014B20064756369656E646F20506F73696369F365
:1014C2006E20313A20536F7270726573610D0A009B
:1014D200506F73696369F36E2061706C6963616454
:1014E200610D0A00526570726F64756369656E649E
:1014F2006F20506F73696369F36E20323A204E6534
:10150200757472616C207669656E646F204C6164DB
:101512006F20440D0A00526570726F6475636965CD
:101522006E646F20506F73696369F36E20333A20E3
:101532004E65757472616C207669656E646F204CBD
:1015420061646F20497A0D0A00526570726F64758A
:101552006369656E646F20506F736963696F6E2093
:10156200343A204475726D69656E646F0D0A0052DB
:101572006570726F64756369656E646F20506F7316
:10158200696369F36E20353A206C61206564697481
:1015920061626C6520706F72207573756172696F1C
:1015A2000D0A0045646974616E646F20506F73693F
:1015B20063696F6E20310D0A0045646974616E645F
:1015C2006F20506F736963696F6E20320D0A004598
:1015D200646974616E646F20506F736963696F6EC2
:1015E20020330D0A0045646974616E646F20506F88
:1015F200736963696F6E20340D0A00456469746112
:101602006E646F20506F736963696F6E20350D0AC7
:021612000000D6
:00000001FF
