:100000000C9434000C9451000C9451000C94510049
:100010000C9451000C9451000C9451000C9451001C
:100020000C9451000C9451000C9451000C94AA02B1
:100030000C9451000C9451000C9451000C945100FC
:100040000C9442020C9451000C94BA000C94510090
:100050000C9451000C9451000C9451000C945100DC
:100060000C9451000C94510011241FBECFEFD8E026
:10007000DEBFCDBF12E0A0E0B1E0E8E3F7E002C0F0
:1000800005900D92A837B107D9F722E0A8E7B2E0B2
:1000900001C01D92A83AB207E1F70E94A9000C9492
:1000A0009A030C94000080E480937C0087E880939E
:1000B0007A0008958AB18E7F8AB98AB182608AB93E
:1000C0001092C00088E98093C10086E08093C2004E
:1000D00087E690E09093C5008093C40008959091C6
:1000E000C00095FFFCCF8093C60008950F931F9327
:1000F000CF938C01C0E003C00E946F00CF5FF80176
:10010000EC0FF11D80818111F7CFCF911F910F91DD
:10011000089580E091E00E9476008DE291E00E94D7
:1001200076008EE391E00E94760082E591E00E94E5
:1001300076008FE791E00E9476008BE391E00E94C9
:1001400076008BE391E00E94760085B18F7D85B9C2
:100150000895F89484B1806384B985B18F7C85B9A2
:100160000E945A000E9475020E94530078940E94D7
:100170008900FFCF1F920F920FB60F9211242F9379
:100180003F934F935F936F937F938F939F93AF931F
:10019000BF93CF93EF93FF93C091C6008C2F0E9423
:1001A0006F00CD3019F0CA3009F04CC1E0917802EF
:1001B000F0E0E857FD4F10828BE391E00E9476005B
:1001C0008091790281112CC080918802813361F481
:1001D00081E08093790280EA91E00E9476008CEAC7
:1001E00091E00E94760019C0823361F482E080932E
:1001F00079028DEC91E00E9476008DED91E00E94F5
:1002000076000BC0833329F488EF91E00E947600DA
:1002100004C08BE092E00E9476000E9489000FC12A
:1002200080917902813009F0AAC043E050E06DE18D
:1002300072E088E892E00E944F03892BE9F48BE892
:1002400092E00E943103C82F682F80E00E9498023C
:1002500081E292E00E9476004AE06EE772E08C2F25
:1002600090E00E945D038EE792E00E9476008BE3AF
:1002700091E00E947600E3C043E050E068E272E063
:1002800088E892E00E944F03892BE9F48BE892E022
:100290000E943103C82F682F81E00E9498028CE2EF
:1002A00092E00E9476004AE06EE772E08C2F90E0C8
:1002B0000E945D038EE792E00E9476008BE391E05E
:1002C0000E947600BCC043E050E063E372E088E83F
:1002D00092E00E944F03892BE9F48BE892E00E94A0
:1002E0003103C82F682F82E00E94980287E392E0D2
:1002F0000E9476004AE06EE772E08C2F90E00E9448
:100300005D038EE792E00E9476008BE391E00E940D
:10031000760095C043E050E06EE372E088E892E03A
:100320000E944F03892BE9F48BE892E00E9431038D
:10033000C82F682F83E00E94980282E492E00E9416
:1003400076004AE06EE772E08C2F90E00E945D0339
:100350008EE792E00E9476008BE391E00E947600A7
:100360006EC080918802883729F4109279020E9429
:10037000890065C089E492E00E94760060C08091A7
:100380007902823009F05BC043E050E06CE572E036
:1003900088E892E00E944F03892BE9F48BE892E011
:1003A0000E943103C82F682F84E00E94980280E6E3
:1003B00092E00E9476004AE06EE772E08C2F90E0B7
:1003C0000E945D038EE792E00E9476008BE391E04D
:1003D0000E94760034C043E050E067E672E088E8AF
:1003E00092E00E944F03892BE9F48BE892E00E948F
:1003F0003103C82F682F85E00E9498028BE692E0B7
:100400000E9476004AE06EE772E08C2F90E00E9436
:100410005D038EE792E00E9476008BE391E00E94FC
:1004200076000DC080918802883729F410927902F5
:100430000E94890004C089E492E00E947600109234
:1004400078020EC080917802833150F4E0917802F6
:1004500081E08E0F80937802F0E0E857FD4FC08373
:10046000FF91EF91CF91BF91AF919F918F917F912C
:100470006F915F914F913F912F910F900FBE0F9011
:100480001F9018951F920F920FB60F9211248F9301
:100490009F9380917B028F5F80937B0280917B0290
:1004A000811103C085B1806185B990917B028091F3
:1004B0007A02981303C085B18F7E85B99F918F9181
:1004C0000F900FBE0F901F901895282F30E0A0EDD1
:1004D000B7E00E94220324EB30E040E050E00E94AD
:1004E0000003C9018053984F08958AB18C6F8AB96F
:1004F000109280008AE08093810088EB9BE09093CB
:10050000890080938800EFE6F0E08081826080833C
:1005100080E00BC0E82FF0E0EE0FFF1FE456FD4F28
:1005200028EB3BE0318320838F5F863098F308957A
:10053000CF93DF93863058F4C82FD0E0862F0E94E7
:100540006502CC0FDD1FC456DD4F99838883DF9190
:10055000CF9108951F920F920FB60F9211248F938F
:100560009F93EF93FF9380917C0281111AC0E091D9
:100570007D02F0E0EE58FD4F90818BB1892B8BB955
:10058000E0917D02F0E0EE0FFF1FE456FD4F808109
:100590009181909389008093880081E080937C0210
:1005A00026C0E0917D02F0E0EE58FD4F808190E0A2
:1005B000809590959BB189238BB980917D028F5F47
:1005C00080937D0280917D02863048F010927D02FA
:1005D00080E49CE9909389008093880006C080EDB8
:1005E00097E0909389008093880010927C02FF919D
:1005F000EF919F918F910F900FBE0F901F901895C4
:10060000A1E21A2EAA1BBB1BFD010DC0AA1FBB1F16
:10061000EE1FFF1FA217B307E407F50720F0A21B88
:10062000B30BE40BF50B661F771F881F991F1A94F5
:1006300069F760957095809590959B01AC01BD011F
:10064000CF010895A29FB001B39FC001A39F700D79
:10065000811D1124911DB29F700D811D1124911DCA
:100660000895FC0188279927E89421912032E9F325
:10067000293010F02E30C8F32B3241F02D3239F4EE
:10068000689404C00E946803820F911D2191205339
:100690002A30C0F31EF4909581959F4F0895FB0179
:1006A000DC014150504030F08D910190801919F4D7
:1006B0000020B9F7881B990B0895BB274A3031F405
:1006C000992322F4BDE2909581959F4F0C9471037C
:1006D0007AE0979F902D879F802D910D112408958A
:1006E000BB27FB015527AA27880F991FAA1FA4170C
:1006F00010F0A41B83955051B9F7A05DAA3308F000
:10070000A95DA193009779F7B111B1931192CB0133
:100710000C948A03DC01FC01672F71917723E1F7C8
:10072000329704C07C916D9370836291AE17BF07BE
:08073000C8F30895F894FFCF0F
:100738003D3D3D3D3D3D3D3D3D3D3D204D656E755D
:1007480020416E696D617472F36E69636F3D3D3D62
:100758003D3D3D3D3D3D3D3D3D3D0D0A00313A208D
:100768004D6F766572204F6A6F73200D0A00323A1A
:10077800204D6F766572205061727061646F730DE1
:100788000A00333A204D6F737472617220556C748D
:10079800696D6120706F73696369F36E20677572A4
:1007A800616461646120454550524F4D0D0A003D1A
:1007B8003D3D3D3D3D3D3D3D3D3D3D3D3D3D3D3D61
:1007C8003D3D3D3D3D3D3D3D3D3D3D3D3D0D0A00F1
:1007D8004D6F646F204F4A4F530D0A0049312C4426
:1007E800312C49322C4432202B20616E67756C6F96
:1007F800207C20782073616C69720D0A004D6F644B
:100808006F205041525041444F530D0A004D312C36
:100818004D32202B20616E67756C6F207C2078200C
:1008280073616C69720D0A00454550524F4D207036
:10083800656E6469656E74650D0A004F7063696F53
:100848006E20696E76616C6964610D0A0049313AFF
:10085800004931202D3E200044313A004431202DFA
:100868003E200049323A004932202D3E20004432D1
:100878003A004432202D3E2000436F6D616E646F54
:1008880020696E76616C69646F0D0A004D313A001B
:100898004D31202D3E20004D323A004D32202D3E64
:0808A80020000408102040802C
:00000001FF
