:100000000C9434000C9451000C9451000C94510049
:100010000C9451000C9451000C9451000C9451001C
:100020000C9451000C9411010C9451000C94C101DA
:100030000C9451000C9451000C9451000C945100FC
:100040000C9456010C9451000C9406040C9451002D
:100050000C9451000C9451000C9451000C945100DC
:100060000C9451000C94510011241FBECFEFD8E026
:10007000DEBFCDBF13E0A0E0B1E0E0EEF9E002C0EA
:1000800005900D92A630B107D9F723E0A6E0B3E0C2
:1000900001C01D92A733B207E1F70E946F000C94D4
:1000A000EE040C94000080E480937C0087E8809349
:1000B0007A0008958770ECE7F0E09081987F892BB3
:1000C0008083EAE7F0E080818064808380917A0019
:1000D00086FDFCCF80917800909179000895F89486
:1000E00084B1806384B985B18F7C85B90E94170281
:1000F0000E944C010E94DE000E9402010E945300F7
:1001000078940E94460280910B03882321F010927C
:100110000B030E94670280910C038330A1F782E0F9
:100120000E945A005C0183E00E945A006C0184E046
:100130000E945A007C0185E00E945A008C0186E0F2
:100140000E945A00EC0187E00E945A004C01C50150
:100150000E94B401B82EC6010E94B401D82EC70176
:100160000E94B401F82EC8010E94B401182FCE01DC
:100170000E94B401D82FC4010E94B401C82F8B2D56
:100180000E948E010E94F8008D2D0E948E010E9417
:10019000FD008F2D0E949E010E948801812F0E94E8
:1001A0009E010E948B018D2F0E949E010E9446019C
:1001B0008C2F0E949E010E944901A5CF84B18660C8
:1001C00084B982EA809380008AE1809381008FE382
:1001D0009CE9909387008093860088EB9BE0909346
:1001E00089008093880090938B0080938A00089503
:1001F0009093890080938800089590938B0080935A
:100200008A0008958AB188608AB984B1886084B907
:100210001092B00084E08093B10081E08093700080
:1002200008951F920F920FB60F9211248F939F93F0
:10023000809106038F5F80930603809106038130CF
:1002400031F48BB188608BB985B1886085B99091A4
:10025000060380910101981303C08BB1877F8BB98E
:100260009091060380910001981303C085B1877FA8
:1002700085B9809106038C3910F0109206039F9186
:100280008F910F900FBE0F901F90189580930101D2
:1002900008958093000108958AB180668AB914BCDC
:1002A00083E085BD81E080936E0008951F920F92D8
:1002B0000FB60F9211248F939F93809107038F5F46
:1002C0008093070380910703813019F48BB1806616
:1002D0008BB99091070380910301981303C08BB1F0
:1002E0008F7B8BB99091070380910201981303C013
:1002F0008BB18F7D8BB9809107038C3910F01092F0
:1003000007039F918F910F900FBE0F901F9018952C
:10031000809303010895809302010895282F30E00F
:10032000A0EDB7E00E946D0424EB30E040E050E027
:100330000E944B04C9018053984F0895282F30E044
:10034000220F331F220F331F220F331FA3E8BDE2FA
:100350000E946D0496958795929582958F70892756
:100360009F708927885F08959C01A4EBB0E00E94EC
:100370006D042FEF33E040E050E00E944B04822FE9
:1003800008951F920F920FB60F9211248F939F938F
:10039000EF93FF938091080381111AC0E091090344
:1003A000F0E0EC5FFE4F90818BB1892B8BB9E0912F
:1003B0000903F0E0EE0FFF1FE35FFC4F80819181A6
:1003C000909389008093880081E08093080326C081
:1003D000E0910903F0E0EC5FFE4F808190E08095B2
:1003E00090959BB189238BB9809109038F5F80938E
:1003F000090380910903863048F01092090380E4D4
:100400009CE9909389008093880006C080ED97E076
:10041000909389008093880010920803FF91EF91D8
:100420009F918F910F900FBE0F901F9018958AB1DA
:100430008E7F8AB98AB182608AB91092C00088E939
:100440008093C10086E08093C20087E690E090939D
:10045000C5008093C40008959091C00095FFFCCF23
:100460008093C60008950F931F93CF938C01C0E033
:1004700003C00E942C02CF5FF801EC0FF11D8081B8
:100480008111F7CFCF911F910F91089589E492E0E8
:100490000E9433028AE091E00E9433028EE291E0F2
:1004A0000E9433028AE491E00E9433028AE691E0DE
:1004B0000E9433028DE791E00E94330287E991E0C8
:1004C0000E9433028EEA92E00E9433020895CF9395
:1004D00080910C0381116CC06BEB71E083E293E0BF
:1004E0000E949A04892BE1F481E080930C038DEB48
:1004F00091E00E9433028BEC91E00E94330287ED81
:1005000091E00E94330283EE91E00E9433028FEE6D
:1005100091E00E9433028BEF91E00E94330274C19C
:100520006AE072E083E293E00E949A04892BA1F4CE
:1005300082E080930C038CE092E00E9433028EE113
:1005400092E00E9433028AE292E00E9433028BEF33
:1005500091E00E94330258C166E372E083E293E0C7
:100560000E949A04892B29F488E392E00E943302C6
:100570004BC16CE472E083E293E00E949A04892B01
:1005800081F483E080930C038EE492E00E943302B6
:1005900080E692E00E94330289E792E00E943302F3
:1005A00033C189E892E00E9433020E9446022CC1C6
:1005B00080910C03813009F0AEC043E050E06BE95C
:1005C00072E083E293E00E94A304892BE9F486E2BF
:1005D00093E00E947C04C82F0E948E010E94F800C4
:1005E0008FE992E00E9433024AE069E173E08C2FC8
:1005F00090E00E94B10489E193E00E94330289E413
:1006000092E00E94330200C143E050E066EA72E0EB
:1006100083E293E00E94A304892BE9F486E293E04D
:100620000E947C04C82F0E948E010E94FD008AEA6D
:1006300092E00E9433024AE069E173E08C2F90E07F
:100640000E94B10489E193E00E94330289E492E0C0
:100650000E943302D9C043E050E061EB72E083E2D4
:1006600093E00E94A304892BE9F486E293E00E94C0
:100670007C04C82F0E949E010E94880185EB92E0B5
:100680000E9433024AE069E173E08C2F90E00E94FF
:10069000B10489E193E00E94330289E492E00E9470
:1006A0003302B2C043E050E06CEB72E083E293E0CF
:1006B0000E94A304892BE9F486E293E00E947C0463
:1006C000C82F0E949E010E948B0180EC92E00E9444
:1006D00033024AE069E173E08C2F90E00E94B1049C
:1006E00089E193E00E94330289E492E00E943302A0
:1006F0008BC067EC72E083E293E00E949A04892B3E
:1007000029F410920C030E9446027EC089EC92E00C
:100710000E94330279C080910C03823009F060C0DE
:1007200043E050E06CED72E083E293E00E94A304AA
:10073000892BE9F486E293E00E947C04C82F0E9492
:100740009E010E94460180EE92E00E9433024AE040
:1007500069E173E08C2F90E00E94B10489E193E09D
:100760000E94330289E492E00E9433024DC043E0CC
:1007700050E067EE72E083E293E00E94A304892BCD
:10078000E9F486E293E00E947C04C82F0E949E0157
:100790000E9449018BEE92E00E9433024AE069E137
:1007A00073E08C2F90E00E94B10489E193E00E94F5
:1007B000330289E492E00E94330226C067EC72E0C3
:1007C00083E293E00E949A04892B29F410920C038F
:1007D0000E94460219C089EC92E00E94330214C0C4
:1007E00080910C03833081F467EC72E083E293E044
:1007F0000E949A04892B41F410920C0382EF92E03C
:100800000E9433020E944602CF9108951F920F92D8
:100810000FB60F9211242F933F934F935F936F93D3
:100820007F938F939F93AF93BF93CF93EF93FF9358
:10083000C091C6008C2F0E942C02CB3361F4E09152
:100840000A03F0E0ED5DFC4F108210920A0381E094
:1008500080930B030EC080910A03833150F4E09122
:100860000A0381E08E0F80930A03F0E0ED5DFC4FF8
:10087000C083FF91EF91CF91BF91AF919F918F91E5
:100880007F916F915F914F913F912F910F900FBE8C
:100890000F901F901895A1E21A2EAA1BBB1BFD01F9
:1008A0000DC0AA1FBB1FEE1FFF1FA217B307E4074F
:1008B000F50720F0A21BB30BE40BF50B661F771FA7
:1008C000881F991F1A9469F7609570958095909587
:1008D0009B01AC01BD01CF010895A29FB001B39F60
:1008E000C001A39F700D811D1124911DB29F700D39
:1008F000811D1124911D0895FC0188279927E894F2
:1009000021912032E9F3293010F02E30C8F32B3238
:1009100041F02D3239F4689404C00E94BC04820F67
:10092000911D219120532A30C0F31EF4909581959A
:100930009F4F0895FB01DC018D91019080190110FA
:10094000D9F3990B0895FB01DC014150504030F080
:100950008D910190801919F40020B9F7881B990B2B
:100960000895BB274A3031F4992322F4BDE29095D3
:1009700081959F4F0C94C5047AE0979F902D879F97
:10098000802D910D11240895BB27FB015527AA271F
:10099000880F991FAA1FA41710F0A41B839550510C
:1009A000B9F7A05DAA3308F0A95DA193009779F784
:1009B000B111B1931192CB010C94DE04DC01FC0166
:1009C000672F71917723E1F7329704C07C916D9383
:1009D00070836291AE17BF07C8F30895F894FFCFF4
:1009E0000F0F0F0F0408102040803D3D3D3D3D3D61
:1009F0003D204D454E5520414E494D4154524F4E9C
:100A000049434F203D3D3D3D3D3D3D0D0A003120D8
:100A10002D3E20436F6E74726F6C206465204F6AA8
:100A20006F7320554152540D0A0032202D3E204351
:100A30006F6E74726F6C20646520506172706164B7
:100A40006F7320554152540D0A0033202D3E204C27
:100A500065657220454550524F4D0D0A0034202DDA
:100A60003E20436F6E74726F6C204D616E75616CC9
:100A7000204144430D0A003D3D3D3D3D3D3D3D3D52
:100A80003D3D3D3D3D3D3D3D3D3D3D3D3D3D3D3D96
:100A90003D3D3D3D3D3D3D3D0D0A0031000D0A4DC2
:100AA0006F646F204F4A4F530D0A0049313A616E0F
:100AB00067756C6F0D0A0044313A616E67756C6F33
:100AC0000D0A0049323A616E67756C6F0D0A004479
:100AD000323A616E67756C6F0D0A00782070617232
:100AE000612073616C69720D0A0032000D0A4D6F4E
:100AF000646F205041525041444F530D0A004D3114
:100B00003A616E67756C6F0D0A004D323A616E671F
:100B1000756C6F0D0A0033004C6579656E646F204B
:100B2000454550524F4D2E2E2E0D0A0034004D6F6C
:100B3000646F20414443204D616E75616C0D0A0065
:100B4000506F74656E63696F6D6574726F73206149
:100B5000637469766F730D0A00783B20706172616F
:100B60002073616C69720D0A004F7063696F6E20AB
:100B7000696E76616C6964610D0A0049313A004919
:100B800031202D3E200044313A004431202D3E20BA
:100B90000049323A004932202D3E200044323A00CA
:100BA0004432202D3E20007800436F6D616E646FEB
:100BB00020696E76616C69646F0D0A004D313A00F0
:100BC0004D31202D3E20004D323A004D32202D3E39
:100BD000200053616C69656E646F206D6F646F20D7
:060BE0004144430D0A0030
:00000001FF
