S017000050325F416E696D6174726F6E69635F2E7372656358
S11300000C9434000C9451000C9451000C94510045
S11300100C9451000C9451000C9451000C94510018
S11300200C9451000C94DA020C9451000C94570374
S11300300C9451000C9451000C9451000C945100F8
S11300400C941F030C9451000C94EC000C9451007C
S11300500C9451000C9451000C9451000C945100D8
S11300600C9451000C94510011241FBECFEFD8E022
S1130070DEBFCDBF12E0A0E0B1E0E4EAF8E002C0E8
S113008005900D92A43DB107D9F723E0A4EDB2E0A9
S113009001C01D92A430B207E1F70E94B1000C9494
S11300A050040C94000080E480937C0087E88093E3
S11300B07A0008958AB18E7F8AB98AB182608AB93A
S11300C01092C00088E98093C10086E08093C2004A
S11300D087E690E09093C5008093C40008959091C2
S11300E0C00095FFFCCF8093C60008950F931F9323
S11300F0CF938C01C0E003C00E946F00CF5FF80172
S1130100EC0FF11D80818111F7CFCF911F910F91D9
S1130110089584E091E00E94760081E391E00E94DA
S1130120760082E491E00E94760086E591E00E94E8
S1130130760083E891E00E9476008DEC91E00E94C5
S1130140760084EA91E00E9476008DEC91E00E94B2
S113015076008DEC91E00E94760085B18F7D85B9A3
S11301600895F89484B1806384B985B18F7C85B98E
S11301700E945A000E9415030E94A7020E94CB020B
S11301800E94530078940E948900FFCF282F30E00A
S1130190A0EDB7E00E94CF0324EB30E040E050E054
S11301A00E94AD03C9018053984F0895282F30E071
S11301B0220F331F220F331F220F331FA3E8BDE288
S11301C00E94CF0396958795929582958F70892783
S11301D09F708927885F08951F920F920FB60F9220
S11301E011242F933F934F935F936F937F938F9338
S11301F09F93AF93BF93CF93EF93FF93C091C600A8
S11302008C2F0E946F00CB3309F081C18091D402FE
S1130210882309F48AC1E091D402F0E0EC51FD4F47
S113022010828DEC91E00E9476008091D5028111BC
S113023054C060ED71E084EE92E00E94FC03892BCF
S1130240E1F481E08093D50282ED91E00E94760092
S11302508EED91E00E9476008BEE91E00E94760094
S113026088EF91E00E94760085E092E00E9476009B
S113027082E192E00E94760047C162E272E084EE7D
S113028092E00E94FC03892BA1F482E08093D502C2
S113029084E292E00E94760084E392E00E94760079
S11302A081E492E00E94760082E192E00E9476006E
S11302B02BC16EE472E084EE92E00E94FC03892B71
S11302C029F480E592E00E9476001EC184E692E063
S11302D00E9476000E94890017C18091D502813066
S11302E009F0AEC043E050E066E772E084EE92E0CD
S11302F00E940504892BE9F487EE92E00E94DE0354
S1130300C82F0E94C6000E94C1028AE792E00E94A0
S113031076004AE06AED72E08C2F90E00E941304AC
S11303208AED92E00E9476008DEC91E00E947600C6
S1130330EBC043E050E061E872E084EE92E00E949A
S11303400504892BE9F487EE92E00E94DE03C82FAE
S11303500E94C6000E94C60285E892E00E947600D0
S11303604AE06AED72E08C2F90E00E9413048AED5B
S113037092E00E9476008DEC91E00E947600C4C069
S113038043E050E06CE872E084EE92E00E940504E1
S1130390892BE9F487EE92E00E94DE03C82F0E94C5
S11303A0D6000E94510380E992E00E9476004AE060
S11303B06AED72E08C2F90E00E9413048AED92E0C3
S11303C00E9476008DEC91E00E9476009DC043E08F
S11303D050E067E972E084EE92E00E940504892B04
S11303E0E9F487EE92E00E94DE03C82F0E94D60053
S11303F00E9454038BE992E00E9476004AE06AED81
S113040072E08C2F90E00E9413048AED92E00E9427
S113041076008DEC91E00E94760076C062EA72E08C
S113042084EE92E00E94FC03892B29F41092D502F9
S11304300E94890069C084EA92E00E94760064C048
S11304408091D502823009F05FC043E050E067EB51
S113045072E084EE92E00E940504892BE9F487EEB1
S113046092E00E94DE03C82F0E94D6000E940F0370
S11304708BEB92E00E9476004AE06AED72E08C2FEA
S113048090E00E9413048AED92E00E9476008DECC5
S113049091E00E94760038C043E050E062EC72E0E4
S11304A084EE92E00E940504892BE9F487EE92E041
S11304B00E94DE03C82F0E94D6000E94120386EC1D
S11304C092E00E9476004AE06AED72E08C2F90E0A0
S11304D00E9413048AED92E00E9476008DEC91E074
S11304E00E94760011C062EA72E084EE92E00E94FB
S11304F0FC03892B29F41092D5020E94890004C0C0
S113050084EA92E00E9476001092D4020EC0809198
S1130510D402833150F4E091D40281E08E0F8093B1
S1130520D402F0E0EC51FD4FC083FF91EF91CF91E5
S1130530BF91AF919F918F917F916F915F914F91F7
S11305403F912F910F900FBE0F901F90189584B17B
S1130550866084B982EA809380008AE18093810076
S11305608FE39CE9909387008093860088EB9BE05F
S1130570909389008093880090938B0080938A00E5
S113058008959093890080938800089590938B0038
S113059080938A0008958AB188608AB984B188609A
S11305A084B91092B00084E08093B10081E080931C
S11305B0700008951F920F920FB60F9211248F931B
S11305C09F938091D6028F5F8093D6028091D6024A
S11305D0813031F48BB188608BB985B1886085B97D
S11305E09091D60280910101981303C08BB1877F4B
S11305F08BB99091D60280910001981303C085B104
S1130600877F85B98091D6028C3910F01092D6027A
S11306109F918F910F900FBE0F901F90189580930C
S1130620010108958093000108958AB180668AB912
S113063014BC83E085BD81E080936E0008951F9211
S11306400F920FB60F9211248F939F938091D7022C
S11306508F5F8093D7028091D702813019F48BB1D8
S113066080668BB99091D70280910301981303C0DF
S11306708BB18F7B8BB99091D70280910201981333
S113068003C08BB18F7D8BB98091D7028C3910F068
S11306901092D7029F918F910F900FBE0F901F90D1
S11306A018958093030108958093020108951F9281
S11306B00F920FB60F9211248F939F93EF93FF9392
S11306C08091D80281111AC0E091D902F0E0E3537D
S11306D0FD4F90818BB1892B8BB9E091D902F0E069
S11306E0EE0FFF1FE850FD4F8081918190938900A8
S11306F08093880081E08093D80226C0E091D902DB
S1130700F0E0E353FD4F808190E0809590959BB19C
S113071089238BB98091D9028F5F8093D90280910C
S1130720D902863048F01092D90280E49CE9909373
S113073089008093880006C080ED97E0909389003B
S1130740809388001092D802FF91EF919F918F912E
S11307500F900FBE0F901F901895A1E21A2EAA1B9E
S1130760BB1BFD010DC0AA1FBB1FEE1FFF1FA2175D
S1130770B307E407F50720F0A21BB30BE40BF50B5A
S1130780661F771F881F991F1A9469F760957095E3
S1130790809590959B01AC01BD01CF010895A29F66
S11307A0B001B39FC001A39F700D811D1124911D41
S11307B0B29F700D811D1124911D0895FC0188279D
S11307C09927E89421912032E9F3293010F02E3052
S11307D0C8F32B3241F02D3239F4689404C00E94DE
S11307E01E04820F911D219120532A30C0F31EF460
S11307F0909581959F4F0895FB01DC018D910190A7
S113080080190110D9F3990B0895FB01DC014150C3
S1130810504030F08D910190801919F40020B9F7FF
S1130820881B990B0895BB274A3031F4992322F48D
S1130830BDE2909581959F4F0C9427047AE0979F91
S1130840902D879F802D910D11240895BB27FB01C6
S11308505527AA27880F991FAA1FA41710F0A41BB5
S113086083955051B9F7A05DAA3308F0A95DA1930F
S1130870009779F7B111B1931192CB010C94400414
S1130880DC01FC01672F71917723E1F7329704C0F3
S11308907C916D9370836291AE17BF07C8F308957E
S10708A0F894FFCFF6
S11308A40F0F0F0F3D3D3D3D3D3D3D3D3D3D3D2045
S11308B44D656E7520416E696D617472F36E696382
S11308C46F3D3D3D3D3D3D3D3D3D3D3D3D3D0D0A81
S11308D400313A204D6F766572204F6A6F73200D94
S11308E40A00323A204D6F7665722050617270614D
S11308F4646F730D0A00333A204D6F73747261721E
S113090420556C74696D6120706F73696369F36E4B
S113091420677572616461646120454550524F4D8E
S11309240D0A003D3D3D3D3D3D3D3D3D3D3D3D3D8F
S11309343D3D3D3D3D3D3D3D3D3D3D3D3D3D3D3DDF
S11309443D0D0A004E4F54413A20416C2066696EB5
S1130954616C206465206361646120636F6D616E02
S1130964646F20636F6C6F636172203B200D0A0017
S113097431004D6F646F204F4A4F530D0A00557375
S1130984653A2049313A39300D0A005573653A20E5
S113099444313A39300D0A005573653A2049323AE4
S11309A439300D0A005573653A2044323A39300D12
S11309B40A00783B20706172612073616C69720D66
S11309C40A0032004D6F646F205041525041444F2D
S11309D4530D0A005573653A204D313A39300D0AE6
S11309E4005573653A204D323A39300D0A0033000C
S11309F44C6579656E646F20454550524F4D2E2EDB
S1130A042E0D0A004F7063696F6E20696E76616CF7
S1130A146964610D0A0049313A004931202D3E20B0
S1130A240044313A004431202D3E200049323A003A
S1130A344932202D3E200044323A004432202D3ED7
S1130A4420007800436F6D616E646F20696E766177
S1130A546C69646F0D0A004D313A004D31202D3E0E
S1130A6420004D323A004D32202D3E20000408105F
S1070A74204080009A
S9030000FC
