:100000000C9434000C9451000C9451000C94510049
:100010000C9451000C9451000C9451000C9451001C
:100020000C9451000C9451000C9451000C94B702A4
:100030000C9451000C9451000C9451000C945100FC
:100040000C944F020C9451000C94BA000C94510083
:100050000C9451000C9451000C9451000C945100DC
:100060000C9451000C94510011241FBECFEFD8E026
:10007000DEBFCDBF12E0A0E0B1E0E2E5F7E002C0F4
:1000800005900D92AA3BB107D9F722E0AAEBB2E0A6
:1000900001C01D92AA3EB207E1F70E94A9000C948C
:1000A000A7030C94000080E480937C0087E8809391
:1000B0007A0008958AB18E7F8AB98AB182608AB93E
:1000C0001092C00088E98093C10086E08093C2004E
:1000D00087E690E09093C5008093C40008959091C6
:1000E000C00095FFFCCF8093C60008950F931F9327
:1000F000CF938C01C0E003C00E946F00CF5FF80176
:10010000EC0FF11D80818111F7CFCF911F910F91DD
:10011000089580E091E00E9476008DE291E00E94D7
:1001200076008EE391E00E94760082E591E00E94E5
:1001300076008FE791E00E9476008BE391E00E94C9
:1001400076008BE391E00E94760085B18F7D85B9C2
:100150000895F89484B1806384B985B18F7C85B9A2
:100160000E945A000E9482020E94530078940E94CA
:100170008900FFCF1F920F920FB60F9211242F9379
:100180003F934F935F936F937F938F939F93AF931F
:10019000BF93CF93DF93EF93FF93C091C6008C2F53
:1001A0000E946F00CD3019F0CA3009F057C1E091BC
:1001B000BA02F0E0E653FD4F10828BE391E00E941B
:1001C00076008091BB02811134C08091CA028133D4
:1001D00081F481E08093BB0280EA91E00E94760086
:1001E0008CEA91E00E94760086EE91E00E94760013
:1001F0001DC0823381F482E08093BB028AEF91E0DC
:100200000E9476008AE092E00E94760086EE91E0FD
:100210000E9476000BC0833329F48AE292E00E94A8
:10022000760004C08EE392E00E9476000E9489006E
:1002300012C18091BB02813009F0ADC043E050E0B3
:1002400060E572E08AEC92E00E945C03892BF1F495
:100250008DEC92E00E943E03C82FD92F682F80E0DA
:100260000E94A50284E592E00E9476004AE060ECDC
:1002700072E08C2F9D2F0E946A0380EC92E00E9416
:1002800076008BE391E00E947600E5C043E050E009
:1002900069E572E08AEC92E00E945C03892BF1F43C
:1002A0008DEC92E00E943E03C82FD92F682F81E089
:1002B0000E94A5028DE592E00E9476004AE060EC83
:1002C00072E08C2F9D2F0E946A0380EC92E00E94C6
:1002D00076008BE391E00E947600BDC043E050E0E1
:1002E0006EE672E08AEC92E00E945C03892BF1F4E6
:1002F0008DEC92E00E943E03C82FD92F682F82E038
:100300000E94A50282E792E00E9476004AE060EC3B
:1003100072E08C2F9D2F0E946A0380EC92E00E9475
:1003200076008BE391E00E94760095C043E050E0B8
:1003300060E872E08AEC92E00E945C03892BE9F4A9
:100340008DEC92E00E943E03C82F682F83E00E944C
:10035000A50284E892E00E9476004AE060EC72E038
:100360008C2F90E00E946A0380EC92E00E9476005D
:100370008BE391E00E9476006EC08091CA028837BC
:1003800029F41092BB020E94890065C08BE892E0BC
:100390000E94760060C08091BB02823009F05BC091
:1003A00043E050E06EE972E08AEC92E00E945C0368
:1003B000892BE9F48DEC92E00E943E03C82F682F50
:1003C00084E00E94A50282EA92E00E9476004AE060
:1003D00060EC72E08C2F90E00E946A0380EC92E067
:1003E0000E9476008BE391E00E94760034C043E0E7
:1003F00050E069EA72E08AEC92E00E945C03892B8B
:10040000E9F48DEC92E00E943E03C82F682F85E04E
:100410000E94A5028DEA92E00E9476004AE060EC1C
:1004200072E08C2F90E00E946A0380EC92E00E94C0
:1004300076008BE391E00E9476000DC08091CA02A5
:10044000883729F41092BB020E94890004C08BE80F
:1004500092E00E9476001092BA020EC08091BA0219
:10046000833150F4E091BA0281E08E0F8093BA029A
:10047000F0E0E653FD4FC083FF91EF91DF91CF9104
:10048000BF91AF919F918F917F916F915F914F91AC
:100490003F912F910F900FBE0F901F9018951F92B4
:1004A0000F920FB60F9211248F939F938091BD02EC
:1004B0008F5F8093BD028091BD02811103C085B121
:1004C000806185B99091BD028091BC02981303C0F0
:1004D00085B18F7E85B99F918F910F900FBE0F9040
:1004E0001F901895282F30E0A0EDB7E00E942F0351
:1004F00024EB30E040E050E00E940D03C90180533E
:10050000984F08958AB18C6F8AB9109280008AE062
:100510008093810088EB9BE0909389008093880012
:10052000EFE6F0E080818260808380E00BC0E82FFE
:10053000F0E0EE0FFF1FE252FD4F28EB3BE031836E
:1005400020838F5F863098F30895CF93DF938630B2
:1005500058F4C82FD0E0862F0E947202CC0FDD1F06
:10056000C252DD4F99838883DF91CF9108951F9206
:100570000F920FB60F9211248F939F93EF93FF93D7
:100580008091BE0281111AC0E091BF02F0E0EC54EC
:10059000FD4F90818BB1892B8BB9E091BF02F0E0C8
:1005A000EE0FFF1FE252FD4F8081918190938900F1
:1005B0008093880081E08093BE0226C0E091BF0254
:1005C000F0E0EC54FD4F808190E0809590959BB1D8
:1005D00089238BB98091BF028F5F8093BF02809186
:1005E000BF02863048F01092BF0280E49CE99093ED
:1005F00089008093880006C080ED97E09093890081
:10060000809388001092BE02FF91EF919F918F918D
:100610000F900FBE0F901F901895A1E21A2EAA1BE3
:10062000BB1BFD010DC0AA1FBB1FEE1FFF1FA217A2
:10063000B307E407F50720F0A21BB30BE40BF50B9F
:10064000661F771F881F991F1A9469F76095709528
:10065000809590959B01AC01BD01CF010895A29FAB
:10066000B001B39FC001A39F700D811D1124911D86
:10067000B29F700D811D1124911D0895FC018827E2
:100680009927E89421912032E9F3293010F02E3097
:10069000C8F32B3241F02D3239F4689404C00E9423
:1006A0007503820F911D219120532A30C0F31EF44F
:1006B000909581959F4F0895FB01DC01415050407A
:1006C00030F08D910190801919F40020B9F7881B42
:1006D000990B0895BB274A3031F4992322F4BDE2E7
:1006E000909581959F4F0C947E037AE0979F902D73
:1006F000879F802D910D11240895BB27FB0155275D
:10070000AA27880F991FAA1FA41710F0A41B83956E
:100710005051B9F7A05DAA3308F0A95DA1930097E5
:1007200079F7B111B1931192CB010C949703DC01CD
:10073000FC01672F71917723E1F7329704C07C9118
:100740006D9370836291AE17BF07C8F30895F89454
:02075000FFCFD9
:100752003D3D3D3D3D3D3D3D3D3D3D204D656E7543
:1007620020416E696D617472F36E69636F3D3D3D48
:100772003D3D3D3D3D3D3D3D3D3D0D0A00313A2073
:100782004D6F766572204F6A6F73200D0A00323A00
:10079200204D6F766572205061727061646F730DC7
:1007A2000A00333A204D6F737472617220556C7473
:1007B200696D6120706F73696369F36E206775728A
:1007C200616461646120454550524F4D0D0A003D00
:1007D2003D3D3D3D3D3D3D3D3D3D3D3D3D3D3D3D47
:1007E2003D3D3D3D3D3D3D3D3D3D3D3D3D0D0A00D7
:1007F2004D6F646F204F4A4F530D0A005573653A8F
:100802002049313A5B616E67756C6F5D2C20443113
:100812003A5B616E67756C6F5D2C2049323A5B61A1
:100822006E67756C6F5D2C2044323A5B616E677542
:100832006C6F5D0D0A00436F6E20782070756564E1
:10084200652073616C69720D0A004D6F646F2050F0
:1008520041525041444F530D0A005573653A204DA1
:10086200313A5B616E67756C6F5D2C204D323A5B7D
:10087200616E67756C6F5D0D0A004C6579656E641B
:100882006F20454550524F4D2E2E2E0D0A004F70AF
:1008920063696F6E20696E76616C6964610D0A002E
:1008A20049313A004931202D0044313A004F6A6FF4
:1008B200206465722062617365202D3E20004932FA
:1008C2003A00507570696C6120697A202D3E2000D3
:1008D20044323A004432202D3E2000436F6D616E57
:1008E200646F20696E76616C69646F0D0A004D3128
:1008F2003A004D31202D3E20004D323A004D32203B
:0A0902002D3E200004081020408064
:00000001FF
