S017000050325F416E696D6174726F6E69635F2E7372656358
S11300000C9434000C9451000C9451000C94510045
S11300100C948C000C9451000C9451000C946B01C2
S11300200C9451000C9451000C9451000C94510008
S11300300C9451000C9451000C94CE010C9451007A
S11300400C9451000C9451000C9462050C945100D2
S11300500C9451000C9451000C9451000C945100D8
S11300600C9451000C94510011241FBECFEFD8E022
S1130070DEBFCDBF14E0A0E0B1E0ECECFCE002C0D8
S113008005900D92AA33B107D9F724E0AAE3B4E0AE
S113009001C01D92A136B207E1F70E94DD000C9465
S11300A064060C94000080E480937C0087E88093CD
S11300B07A0008958770ECE7F0E09081987F892BAF
S11300C08083EAE7F0E080818064808380917A0015
S11300D086FDFCCF8091780090917900089584B1D9
S11300E0816084B98AB180688AB985B18E7F85B907
S11300F08BB18F778BB987B18E7F87B988B18160D7
S113010088B9E8E6F0E0808182608083ECE6F0E084
S113011080818160808308951F920F920FB60F92A1
S113012011242F938F939F9330990EC02FEF89EF53
S113013090E0215080409040E1F700C000003099E9
S113014003C081E080933A049F918F912F910F9087
S11301500FBE0F901F901895CF93DF9385B18160E8
S113016085B98BB180688BB9C8E0D1E0688188E13A
S113017090E00E945206698189E190E00E94520653
S11301806A818AE190E00E9452066B818BE190E0E3
S11301900E9452066C818CE190E00E9452066D81AF
S11301A08DE190E00E94520685B18E7F85B98BB1B6
S11301B08F778BB9DF91CF910895F8940E943D0316
S11301C00E94C3010E9436010E945A010E945300FA
S11301D00E946F0078940E946C0380913A048823F3
S11301E021F010923A040E94AC00809141048823CB
S11301F021F0109241040E948D03809142048330C7
S113020061F782E00E945A00EC0183E00E945A00E8
S11302105C0184E00E945A006C0185E00E945A004F
S11302207C0186E00E945A008C0187E00E945A00FB
S11302304C01CE010E943003C8E0D1E08883C5019F
S11302400E9430038983C6010E9430038A83C70158
S11302500E9430038B83C8010E9430038C83C40145
S11302600E9430038D830E94C102B7CF84B186609F
S113027084B982EA809380008AE1809381008FE3CD
S11302809CE9909387008093860088EB9BE0909391
S113029089008093880090938B0080938A0008954E
S11302A09093890080938800089590938B008093A5
S11302B08A0008958AB188608AB984B1886084B953
S11302C082E08093B0008093B10097E29093B300F2
S11302D08093700008951F920F920FB60F9211240D
S11302E02F933F938F939F9380913B0490913C0471
S11302F0019690933C0480933B0480913B0490913D
S11303003C04019731F48BB188608BB985B1886066
S113031085B920913B0430913C0480910201909175
S113032003012817390719F48BB1877F8BB9209102
S11303303B0430913C048091000190910101281705
S1130340390719F485B1877F85B980913B04909171
S11303503C04883E934020F010923C0410923B04ED
S11303609F918F913F912F910F900FBE0F901F90EF
S113037018959093030180930201089590930101CD
S11303808093000108958AB180668AB982E084BDB1
S113039085BD97E297BD80936E0008951F920F92DA
S11303A00FB60F9211242F933F938F939F938091B5
S11303B03D0490913E04019690933E0480933D0445
S11303C080913D0490913E04019731F48BB1806497
S11303D08BB98BB180628BB920913D0430913E047E
S11303E080910601909107012817390719F48BB100
S11303F08F7B8BB920913D0430913E0480910401A0
S1130400909105012817390719F48BB18F7D8BB9A9
S113041080913D0490913E04883E934020F01092D8
S11304203E0410923D049F918F913F912F910F9024
S11304300FBE0F901F9018959093070180930601AB
S11304400895909305018093040108950F931F93D9
S1130450CF93DF93CDB7DEB72A970FB6F894DEBFFC
S11304600FBECDBF8EE091E00E94590385E291E07A
S11304700E94590308E011E0F80180814AE0BE01BE
S11304806F5F7F4F90E00E940D06CE0101960E949F
S113049059038EE992E00E9459038CE291E00E9494
S11304A05903F80181814AE0BE016F5F7F4F90E0FC
S11304B00E940D06CE0101960E9459038EE992E036
S11304C00E94590383E391E00E945903F801828159
S11304D04AE0BE016F5F7F4F90E00E940D06CE019F
S11304E001960E9459038EE992E00E9459038AE31F
S11304F091E00E945903F80183814AE0BE016F5FD5
S11305007F4F90E00E940D06CE0101960E94590390
S11305108EE992E00E94590381E491E00E9459031C
S1130520F80184814AE0BE016F5F7F4F90E00E9432
S11305300D06CE0101960E9459038EE992E00E94B5
S1130540590388E491E00E945903F80185814AE047
S1130550BE016F5F7F4F90E00E940D06CE010196B1
S11305600E9459038EE992E00E9459032A960FB61D
S1130570F894DEBF0FBECDBFDF91CF911F910F91D5
S11305800895CF93DF93C8E0D1E088810E941103DE
S11305900E94500189810E9411030E9455018A81A1
S11305A00E94210390E00E941C028B810E9421037F
S11305B090E00E9421028C810E94210390E00E941D
S11305C0B9018D810E94210390E00E94BE01DF9158
S11305D0CF910895CF93DF9388E190E00E944A067B
S11305E0C8E0D1E0888389E190E00E944A068983CB
S11305F08AE190E00E944A068A838BE190E00E949F
S11306004A068B838CE190E00E944A068C838DE13C
S113061090E00E944A068D830E94C102DF91CF912F
S11306200895282F30E0A0EDB7E00E94C90524EB1F
S113063030E040E050E00E94A705C9018053984F84
S11306400895282F30E0A2E3B0E00E94C90524EB0E
S113065030E040E050E00E94A705C901C296089529
S11306609C01A4EBB0E00E94C9052FEF33E040E009
S113067050E00E94A705822F08958AB18E7F8AB91F
S11306808AB182608AB91092C00088E98093C1005F
S113069086E08093C20087E690E09093C500809343
S11306A0C40008959091C00095FFFCCF8093C600CC
S11306B008950F931F93CF938C01C0E003C00E9451
S11306C05203CF5FF801EC0FF11D80818111F7CF48
S11306D0CF911F910F9108958EE992E00E945903E2
S11306E08FE491E00E94590383E791E00E9459034B
S11306F08FE891E00E9459038FEA91E00E94590328
S113070082EC91E00E9459038CED91E00E94590320
S113071080E391E00E9459030895CF9380914204AD
S1130720811178C060E072E08DE494E00E94F605E7
S1130730892BE1F481E08093420482E092E00E94FC
S1130740590380E192E00E94590380E292E00E9402
S1130750590380E392E00E94590380E492E00E94EE
S1130760590380E592E00E945903AAC16FE572E043
S11307708DE494E00E94F605892BA1F482E0809335
S1130780420481E692E00E94590383E792E00E94CA
S113079059038FE792E00E94590380E592E00E949A
S11307A059038EC16BE872E08DE494E00E94F60573
S11307B0892B89F48DE892E00E94590381EA92E042
S11307C00E9459030E94EA020E94260281EC92E0F0
S11307D00E94590375C168ED72E08DE494E00E94B3
S11307E0F605892B81F483E0809342048AED92E03C
S11307F00E9459038CEE92E00E94590385E093E035
S11308000E9459035DC185E193E00E9459030E944F
S11308106C0356C180914204813009F0CEC08091AE
S11308203F04811162C060E072E08DE494E00E94B4
S1130830F605892B61F481E080933F0487E293E01D
S11308400E94590381E493E00E94590339C16FE582
S113085072E08DE494E00E94F605892B61F482E055
S113086080933F0489E593E00E94590381E493E077
S11308700E94590325C16BE872E08DE494E00E9464
S1130880F605892B61F483E080933F0483E793E0CA
S11308900E94590381E493E00E94590311C168ED59
S11308A072E08DE494E00E94F605892B61F484E003
S11308B080933F048DE893E00E94590381E493E020
S11308C00E945903FDC067EA73E08DE494E00E943E
S11308D0F605892B29F4109242040E946C03F0C09F
S11308E089EA93E00E945903EBC08DE494E00E94EE
S11308F0D805C82F853B08F0C4EB80913F048230B3
S113090099F018F4813031F02EC08330B9F084307E
S113091001F129C08C2F0E9411030E94500185E22D
S113092091E00E9459031FC08C2F0E9411030E9462
S113093055018CE291E00E94590315C08C2F0E944E
S1130940210390E00E941C0283E391E00E9459037A
S11309500AC08C2F0E94210390E00E9421028AE3A6
S113096091E00E9459034AE063E474E08C2F90E024
S11309700E940D0683E494E00E9459038EE992E0FC
S11309800E94590310923F048AEB93E00E9459039A
S113099085ED93E00E9459038FED93E00E94590383
S11309A089EE93E00E94590383EF93E00E94590378
S11309B08DEF93E00E94590383C0809142048230FA
S11309C009F06AC043E050E06AE074E08DE494E02A
S11309D00E94FF05892B11F580E594E00E94D8055B
S11309E0C82F853B08F0C4EB8C2F0E94210390E0B4
S11309F00E94B90181E491E00E9459034AE063E452
S1130A0074E08C2F90E00E940D0683E494E00E9431
S1130A1059038EE992E00E94590352C043E050E02A
S1130A206EE074E08DE494E00E94FF05892B11F5DB
S1130A3080E594E00E94D805C82F853B08F0C4EBFC
S1130A408C2F0E94210390E00E94BE0188E491E073
S1130A500E9459034AE063E474E08C2F90E00E9402
S1130A600D0683E494E00E9459038EE992E00E940B
S1130A70590326C067EA73E08DE494E00E94F6050A
S1130A80892B29F4109242040E946C0319C082E15C
S1130A9094E00E94590314C080914204833081F48D
S1130AA067EA73E08DE494E00E94F605892B41F433
S1130AB01092420485E294E00E9459030E946C0360
S1130AC0CF9108951F920F920FB60F9211242F9376
S1130AD03F934F935F936F937F938F939F93AF93C2
S1130AE0BF93CF93EF93FF93C091C6008C2F0E94C6
S1130AF05203CB3361F4E0914004F0E0E35BFB4F3D
S1130B0010821092400481E0809341040EC08091D1
S1130B104004833150F4E091400481E08E0F8093CF
S1130B204004F0E0E35BFB4FC083FF91EF91CF9172
S1130B30BF91AF919F918F917F916F915F914F91F1
S1130B403F912F910F900FBE0F901F901895A1E227
S1130B501A2EAA1BBB1BFD010DC0AA1FBB1FEE1F33
S1130B60FF1FA217B307E407F50720F0A21BB30B7E
S1130B70E40BF50B661F771F881F991F1A9469F7FA
S1130B8060957095809590959B01AC01BD01CF0156
S1130B900895A29FB001B39FC001A39F700D811D52
S1130BA01124911DB29F700D811D1124911D089572
S1130BB0FC0188279927E89421912032E9F3293010
S1130BC010F02E30C8F32B3241F02D3239F46894F2
S1130BD004C00E941806820F911D219120532A30CF
S1130BE0C0F31EF4909581959F4F0895FB01DC019D
S1130BF08D91019080190110D9F3990B0895FB018F
S1130C00DC014150504030F08D910190801919F46D
S1130C100020B9F7881B990B0895BB274A3031F49B
S1130C20992322F4BDE2909581959F4F0C9421065F
S1130C307AE0979F902D879F802D910D1124089520
S1130C40BB27FB015527AA27880F991FAA1FA417A2
S1130C5010F0A41B83955051B9F7A05DAA3308F096
S1130C60A95DA193009779F7B111B1931192CB01CA
S1130C700C943A06DC01FC01672F71917723E1F7AC
S1130C80329704C07C916D9370836291AE17BF0755
S1130C90C8F30895F999FECF92BD81BDF89A9927BA
S1130CA080B50895262FF999FECF92BD81BDF89A9B
S1130CB0019700B4021639F01FBA20BD0FB6F8949C
S10F0CC0FA9AF99A0FBE0895F894FFCF39
S1130CCC4B004B004B004B005A5A5A5A5A5A0D0AB5
S1130CDC3D3D3D3D3D20454550524F4D203D3D3D14
S1130CEC3D3D0D0A004931202D3E20004431202D7C
S1130CFC3E20004932202D3E20004432202D3E203F
S1130D0C004D31202D3E20004D32202D3E20003D43
S1130D1C3D3D3D3D3D3D204D454E5520414E494DBB
S1130D2C4154524F4E49434F203D3D3D3D3D3D3D89
S1130D3C0D0A0031202D3E20436F6E74726F6C20AF
S1130D4C6465204F6A6F7320554152540D0A00326A
S1130D5C202D3E20436F6E74726F6C20646520509E
S1130D6C61727061646F7320554152540D0A0033E3
S1130D7C202D3E204C65657220454550524F4D0D3B
S1130D8C0A0034202D3E20436F6E74726F6C204D1C
S1130D9C616E75616C204144430D0A003D3D3D3D3F
S1130DAC3D3D3D3D3D3D3D3D3D3D3D3D3D3D3D3D63
S1130DBC3D3D3D3D3D3D3D3D3D3D3D3D3D0D0A00F3
S1130DCC31000D0A4D6F646F204F4A4F530D0A00CA
S1130DDC31202D3E20536572766F2049310D0A0067
S1130DEC32202D3E20536572766F2044310D0A005B
S1130DFC33202D3E20536572766F2049320D0A0044
S1130E0C34202D3E20536572766F2044320D0A0037
S1130E1C7820706172612073616C69720D0A003202
S1130E2C000D0A4D6F646F205041525041444F5392
S1130E3C0D0A004D313A616E67756C6F0D0A004DE9
S1130E4C323A616E67756C6F0D0A0033004C65792C
S1130E5C656E646F20454550524F4D2E2E2E0D0A53
S1130E6C0043617267616E646F20706F73696369AC
S1130E7C6F6E657320454550524F4D2E2E2E0D0A24
S1130E8C00506F736963696F6E65732061706C6970
S1130E9C63616461730D0A0034004D6F646F20410B
S1130EAC4443204D616E75616C0D0A00506F74657E
S1130EBC6E63696F6D6574726F73206163746976A8
S1130ECC6F730D0A00783B20706172612073616C42
S1130EDC69720D0A004F7063696F6E20696E7661DA
S1130EEC6C6964610D0A000D0A536572766F2049B2
S1130EFC312073656C656363696F6E61646F0D0A91
S1130F0C00496E677265736520616E67756C6F203E
S1130F1C302D3138303B0D0A000D0A536572766F53
S1130F2C2044312073656C656363696F6E61646F13
S1130F3C0D0A000D0A536572766F204932207365D1
S1130F4C6C656363696F6E61646F0D0A000D0A53FF
S1130F5C6572766F2044322073656C656363696FC8
S1130F6C6E61646F0D0A007800536572766F2069A8
S1130F7C6E76616C69646F0D0A000D0A53656C65BD
S1130F8C6363696F6E65206F74726F20736572761C
S1130F9C6F3A0D0A0031202D3E2049310D0A0032E2
S1130FAC202D3E2044310D0A0033202D3E204932A1
S1130FBC0D0A0034202D3E2044320D0A0078202DD9
S1130FCC3E2073616C69720D0A004D313A004D324A
S1130FDC3A00436F6D616E646F20696E76616C6963
S1130FEC646F0D0A0053616C69656E646F206D6FDC
S10D0FFC646F204144430D0A000015
S9030000FC
