S017000050325F416E696D6174726F6E69635F2E7372656358
S11300000C9434000C9451000C9451000C94510045
S11300100C948C000C9451000C9451000C94A80185
S11300200C9451000C9451000C9451000C94510008
S11300300C9451000C9451000C940B020C9451003C
S11300400C9451000C9451000C9400070C94510032
S11300500C9451000C9451000C9451000C945100D8
S11300600C9451000C94510011241FBECFEFD8E022
S1130070DEBFCDBF15E0A0E0B1E0E8E0F0E102C0F2
S113008005900D92AA3BB107D9F725E0AAEBB5E09C
S113009001C01D92A03EB207E1F70E94DD000C945E
S11300A002080C94000080E480937C0087E880932D
S11300B07A0008958770ECE7F0E09081987F892BAF
S11300C08083EAE7F0E080818064808380917A0015
S11300D086FDFCCF8091780090917900089584B1D9
S11300E0816084B98AB180688AB985B18E7F85B907
S11300F08BB18F778BB987B18E7F87B988B18160D7
S113010088B9E8E6F0E0808182608083ECE6F0E084
S113011080818160808308951F920F920FB60F92A1
S113012011242F938F939F9330990EC02FEF89EF53
S113013090E0215080409040E1F700C000003099E9
S113014003C081E08093BA059F918F912F910F9006
S11301500FBE0F901F901895CF93DF9385B18160E8
S113016085B98BB180688BB9C8E0D1E0688188E13A
S113017090E00E94F007698189E190E00E94F00715
S11301806A818AE190E00E94F0076B818BE190E044
S11301900E94F0076C818CE190E00E94F0076D8171
S11301A08DE190E00E94F00785B18E7F85B98BB117
S11301B08F778BB9DF91CF910895F8940E948B03C8
S11301C00E9400020E9473010E9497010E94530042
S11301D00E946F0078940E94BA038091BA05882324
S11301E021F01092BA050E94AC008091C0058823CA
S11301F021F01092C0050E94E7038091C10583306D
S113020061F782E00E945A00EC0183E00E945A00E8
S11302105C0184E00E945A006C0185E00E945A004F
S11302207C0186E00E945A008C0187E00E945A00FB
S11302304C01CE010E947E03C8E0D1E08883C50151
S11302400E947E038983C6010E947E038A83C701BC
S11302500E947E038B83C8010E947E038C83C401A9
S11302600E947E038D830E94FE02B7CF90E0019727
S1130270982F990F980F892F880F0895CF92DF92A6
S1130280EF92FF920F931F93CF93DF93D62EF42E0A
S1130290122F0E943601C82FD0E06D2DCE010E948E
S11302A0F0076F2DCE0101960E94F007612FCE0159
S11302B002960E94F007602FCE0103960E94F00779
S11302C06E2DCE0104960E94F0076C2DCE0105968A
S11302D00E94F007DF91CF911F910F91FF90EF9053
S11302E0DF90CF90089584B1866084B982EA8093C8
S11302F080008AE1809381008FE39CE990938700DA
S11303008093860088EB9BE090938900809388001B
S113031090938B0080938A00089590938900809332
S11303208800089590938B0080938A0008958AB181
S113033088608AB984B1886084B982E08093B0000F
S11303408093B10097E29093B30080937000089576
S11303501F920F920FB60F9211242F933F938F93F6
S11303609F938091BB059091BC0501969093BC0529
S11303708093BB058091BB059091BC05019731F436
S11303808BB188608BB985B1886085B92091BB0534
S11303903091BC058091020190910301281739071F
S11303A019F48BB1877F8BB92091BB053091BC05C3
S11303B080910001909101012817390719F485B142
S11303C0877F85B98091BB059091BC05883E934099
S11303D020F01092BC051092BB059F918F913F9124
S11303E02F910F900FBE0F901F90189590930301BB
S11303F08093020108959093010180930001089570
S11304008AB180668AB982E084BD85BD97E297BDD2
S113041080936E0008951F920F920FB60F921124CD
S11304202F933F938F939F938091BD059091BE0529
S113043001969093BE058093BD058091BD05909172
S1130440BE05019731F48BB180648BB98BB18062A6
S11304508BB92091BD053091BE0580910601909124
S113046007012817390719F48BB18F7B8BB92091B9
S1130470BD053091BE0580910401909105012817B6
S1130480390719F48BB18F7D8BB98091BD0590919B
S1130490BE05883E934020F01092BE051092BD0523
S11304A09F918F913F912F910F900FBE0F901F90AE
S11304B01895909307018093060108959093050180
S11304C08093040108950F931F93CF93DF93CDB7C7
S11304D0DEB72A970FB6F894DEBF0FBECDBF8EE00D
S11304E091E00E94A70385E291E00E94A70308E03F
S11304F011E0F80180814AE0BE016F5F7F4F90E018
S11305000E94AB07CE0101960E94A7038FE592E0FB
S11305100E94A7038CE291E00E94A703F801818165
S11305204AE0BE016F5F7F4F90E00E94AB07CE01AF
S113053001960E94A7038FE592E00E94A70383E33C
S113054091E00E94A703F80182814AE0BE016F5F37
S11305507F4F90E00E94AB07CE0101960E94A70353
S11305608FE592E00E94A7038AE391E00E94A7032B
S1130570F80183814AE0BE016F5F7F4F90E00E94E3
S1130580AB07CE0101960E94A7038FE592E00E947B
S1130590A70381E491E00E94A703F80184814AE063
S11305A0BE016F5F7F4F90E00E94AB07CE010196C2
S11305B00E94A7038FE592E00E94A70388E491E0DC
S11305C00E94A703F80185814AE0BE016F5F7F4F57
S11305D090E00E94AB07CE0101960E94A7038FE52D
S11305E092E00E94A7032A960FB6F894DEBF0FBECE
S11305F0CDBFDF91CF911F910F910895CF93DF93DA
S1130600C8E0D1E088810E945F030E948D01898146
S11306100E945F030E9492018A810E946F0390E00E
S11306200E9459028B810E946F0390E00E945E0237
S11306308C810E946F0390E00E94F6018D810E94DC
S11306406F0390E00E94FB01DF91CF9108950F9317
S11306501F93CF93DF9390E00197982F990F890F01
S1130660C82FCC0FD0E0CE010E94E80708E011E0CB
S1130670F8018083CE0101960E94E807F801818386
S1130680CE0102960E94E807F8018283CE01039608
S11306900E94E807F8018383CE0104960E94E807CC
S11306A0F8018483CE0105960E94E807F80185834A
S11306B00E94FE02DF91CF911F910F910895282F80
S11306C030E0A0EDB7E00E94670724EB30E040E0A3
S11306D050E00E944507C9018053984F0895282F80
S11306E030E0A2E3B0E00E94670724EB30E040E092
S11306F050E00E944507C901C29608959C01A4EBED
S1130700B0E00E9467072FEF33E040E050E00E9422
S11307104507822F08958AB18E7F8AB98AB1826093
S11307208AB91092C00088E98093C10086E0809362
S1130730C20087E690E09093C5008093C4000895BA
S11307409091C00095FFFCCF8093C60008950F934D
S11307501F93CF938C01C0E003C00E94A003CF5F1E
S1130760F801EC0FF11D80818111F7CFCF911F911A
S11307700F9108958FE592E00E94A7038FE491E022
S11307800E94A70383E791E00E94A7038EE891E00B
S11307900E94A7038DEA91E00E94A70380ED91E0F7
S11307A00E94A70389EE91E00E94A70388E092E0EB
S11307B00E94A7038CE292E00E94A70382E692E0E3
S11307C00E94A70380E391E00E94A7030895CF92BB
S11307D0EF920F93CF938091C1058111AFC061E770
S11307E072E08CEC95E00E949407892BE1F481E09F
S11307F08093C10583E792E00E94A70381E892E019
S11308000E94A7038EE892E00E94A7038BE992E07E
S11308100E94A70388EA92E00E94A70385EB92E076
S11308200E94A703E8C265EC72E08CEC95E00E949C
S11308309407892BA1F482E08093C10587EC92E0B0
S11308400E94A70389ED92E00E94A70385EE92E03F
S11308500E94A70381EF92E00E94A703CCC260E04C
S113086073E08CEC95E00E949407892B01F584E0F9
S11308708093C10582E093E00E94A70388E293E09D
S11308800E94A7038AE393E00E94A7038CE493E009
S11308900E94A7038EE593E00E94A70380E793E0FC
S11308A00E94A70382E893E00E94A703A4C26FE812
S11308B073E08CEC95E00E949407892B81F483E02B
S11308C08093C10581E993E00E94A70383EA93E042
S11308D00E94A70385EB92E00E94A7038CC26CEBF5
S11308E073E08CEC95E00E949407892B01F585E078
S11308F08093C1058EEB93E00E94A70380EE93E002
S11309000E94A70389EF93E00E94A70382E194E089
S11309100E94A7038BE294E00E94A70384E494E07E
S11309200E94A70382E893E00E94A70364C28DE5B6
S113093094E00E94A7030E94BA035DC28091C1059E
S1130940813009F0C0C043E050E06FE674E08CEC05
S113095095E00E949D07892B09F58FEC95E00E9494
S11309607607C82F853B08F0C4EB8C2F0E945F03E9
S11309700E948D0185E291E00E94A7034AE062ECA7
S113098075E08C2F90E00E94AB0782EC95E00E940A
S1130990A7038FE592E00E94A7032DC243E050E035
S11309A063E774E08CEC95E00E949D07892B09F5C0
S11309B08FEC95E00E947607C82F853B08F0C4EBC6
S11309C08C2F0E945F030E9492018CE291E00E94AE
S11309D0A7034AE062EC75E08C2F90E00E94AB071D
S11309E082EC95E00E94A7038FE592E00E94A703A2
S11309F002C243E050E067E774E08CEC95E00E94AB
S1130A009D07892B11F58FEC95E00E947607C82F7E
S1130A10853B08F0C4EB8C2F0E946F0390E00E948A
S1130A20590283E391E00E94A7034AE062EC75E077
S1130A308C2F90E00E94AB0782EC95E00E94A70304
S1130A408FE592E00E94A703D6C143E050E06BE734
S1130A5074E08CEC95E00E949D07892B11F58FECD6
S1130A6095E00E947607C82F853B08F0C4EB8C2FD5
S1130A700E946F0390E00E945E028AE391E00E946C
S1130A80A7034AE062EC75E08C2F90E00E94AB076C
S1130A9082EC95E00E94A7038FE592E00E94A703F1
S1130AA0AAC16FE774E08CEC95E00E949407892B4F
S1130AB029F41092C1050E94BA039DC181E894E013
S1130AC00E94A70398C18091C105823009F06AC0D1
S1130AD043E050E064E974E08CEC95E00E949D07EB
S1130AE0892B11F58FEC95E00E947607C82F853B82
S1130AF008F0C4EB8C2F0E946F0390E00E94F60173
S1130B0081E491E00E94A7034AE062EC75E08C2F37
S1130B1090E00E94AB0782EC95E00E94A7038FE56A
S1130B2092E00E94A70367C143E050E068E974E0E3
S1130B308CEC95E00E949D07892B11F58FEC95E0D4
S1130B400E947607C82F853B08F0C4EB8C2F0E94C7
S1130B506F0390E00E94FB0188E491E00E94A703E8
S1130B604AE062EC75E08C2F90E00E94AB0782ECC7
S1130B7095E00E94A7038FE592E00E94A7033BC182
S1130B806FE774E08CEC95E00E949407892B29F4BC
S1130B901092C1050E94BA032EC181E894E00E941C
S1130BA0A70329C18091C105833091F46FE774E0F4
S1130BB08CEC95E00E949407892B09F01CC11092DB
S1130BC0C1058CE994E00E94A7030E94BA0313C1F3
S1130BD08091C105843009F080C061E772E08CEC3B
S1130BE095E00E949407892B71F480EB94E00E94B5
S1130BF0A70381E00E9427030E9463028BEC94E028
S1130C000E94A703F8C065EC72E08CEC95E00E94AA
S1130C109407892B71F48FED94E00E94A70382E07E
S1130C200E9427030E9463028BEC94E00E94A703B6
S1130C30E2C060E073E08CEC95E00E949407892B9D
S1130C4071F48AEF94E00E94A70383E00E942703D3
S1130C500E9463028BEC94E00E94A703CCC06FE86F
S1130C6073E08CEC95E00E949407892B71F485E184
S1130C7095E00E94A70384E00E9427030E94630278
S1130C808BEC94E00E94A703B6C06CEB73E08CEC91
S1130C9095E00E949407892B71F480E395E00E940B
S1130CA0A70385E00E9427030E9463028BEC94E073
S1130CB00E94A703A0C06FE774E08CEC95E00E944B
S1130CC09407892B29F41092C1050E94BA0393C09A
S1130CD08DE594E00E94A7038EC08091C105853004
S1130CE009F089C061E772E08CEC95E00E949407FA
S1130CF0892B81F48BE495E00E94A703E8E0F1E0FE
S1130D00C580E480038122814181608181E00E9469
S1130D103E0171C065EC72E08CEC95E00E94940792
S1130D20892B81F481E695E00E94A703E8E0F1E0D5
S1130D30C580E480038122814181608182E00E9438
S1130D403E0159C060E073E08CEC95E00E9494078A
S1130D50892B81F487E795E00E94A703E8E0F1E09E
S1130D60C580E480038122814181608183E00E9407
S1130D703E0141C06FE873E08CEC95E00E9494075B
S1130D80892B81F48DE895E00E94A703E8E0F1E067
S1130D90C580E480038122814181608184E00E94D6
S1130DA03E0129C06CEB73E08CEC95E00E94940743
S1130DB0892B81F483EA95E00E94A703E8E0F1E03F
S1130DC0C580E480038122814181608185E00E94A5
S1130DD03E0111C06FE774E08CEC95E00E9494072B
S1130DE0892B29F41092C1050E94BA0304C08DE531
S1130DF094E00E94A703CF910F91EF90CF900895B4
S1130E001F920F920FB60F9211242F933F934F937B
S1130E105F936F937F938F939F93AF93BF93CF937E
S1130E20EF93FF93C091C6008C2F0E94A003CB3395
S1130E3061F4E091BF05F0E0E453FA4F10821092A0
S1130E40BF0581E08093C0050EC08091BF0583314A
S1130E5050F4E091BF0581E08E0F8093BF05F0E070
S1130E60E453FA4FC083FF91EF91CF91BF91AF91BB
S1130E709F918F917F916F915F914F913F912F91AE
S1130E800F900FBE0F901F901895A1E21A2EAA1B67
S1130E90BB1BFD010DC0AA1FBB1FEE1FFF1FA21726
S1130EA0B307E407F50720F0A21BB30BE40BF50B23
S1130EB0661F771F881F991F1A9469F760957095AC
S1130EC0809590959B01AC01BD01CF010895A29F2F
S1130ED0B001B39FC001A39F700D811D1124911D0A
S1130EE0B29F700D811D1124911D0895FC01882766
S1130EF09927E89421912032E9F3293010F02E301B
S1130F00C8F32B3241F02D3239F4689404C00E94A6
S1130F10B607820F911D219120532A30C0F31EF48D
S1130F20909581959F4F0895FB01DC018D9101906F
S1130F3080190110D9F3990B0895FB01DC0141508C
S1130F40504030F08D910190801919F40020B9F7C8
S1130F50881B990B0895BB274A3031F4992322F456
S1130F60BDE2909581959F4F0C94BF077AE0979FBF
S1130F70902D879F802D910D11240895BB27FB018F
S1130F805527AA27880F991FAA1FA41710F0A41B7E
S1130F9083955051B9F7A05DAA3308F0A95DA193D8
S1130FA0009779F7B111B1931192CB010C94D80742
S1130FB0DC01FC01672F71917723E1F7329704C0BC
S1130FC07C916D9370836291AE17BF07C8F3089547
S1130FD0F999FECF92BD81BDF89A992780B50895FD
S1130FE0262FF999FECF92BD81BDF89A019700B4DE
S1130FF0021639F01FBA20BD0FB6F894FA9AF99A7E
S10B10000FBE0895F894FFCF20
S11310084B004B004B004B005A5A5A5A5A5A0D0A75
S11310183D3D3D3D3D20454550524F4D203D3D3DD4
S11310283D3D0D0A004931202D3E20004431202D3C
S11310383E20004932202D3E20004432202D3E20FF
S1131048004D31202D3E20004D32202D3E20003D04
S11310583D3D3D3D3D3D204D454E5520414E494D7C
S11310684154524F4E49434F203D3D3D3D3D3D3D4A
S11310780D0A0031203E20436F6E74726F6C206439
S113108865204F6A6F7320554152540D0A0032206F
S11310983E20436F6E74726F6C20646520506172D9
S11310A87061646F7320554152540D0A0033203E19
S11310B820526570726F647563697220506F73692A
S11310C863696F6E657320454550524F4D0D0A0094
S11310D834203E20436F6E74726F6C204D616E75C0
S11310E8616C204144430D0A0035203E2045646963
S11310F874617220506F736963696F6E65732045FC
S11311084550524F4D0D0A003D3D3D3D3D3D3D3D51
S11311183D3D3D3D3D3D3D3D3D3D3D3D3D3D3D3DF3
S11311283D3D3D3D3D3D3D3D3D0D0A0050726573DD
S1131138696F6E6120656C206EFA6D65726F20644C
S113114865206C61206F706369F36E20792061F10A
S113115861646520616C2066696E616C203B200DBA
S11311680A00456A656D706C6F3A20313B200D0AA0
S11311780031000D0A4D6F646F204F4A4F530D0A1A
S11311880049313A616E67756C6F3B0D0A00443152
S11311983A616E67756C6F3B0D0A0049323A616EAD
S11311A867756C6F3B0D0A0044323A616E67756C63
S11311B86F3B0D0A00783B20706172612073616C8B
S11311C869720D0A0032000D0A4D6F646F20504198
S11311D8525041444F530D0A004D313A616E6775C0
S11311E86C6F0D0A004D323A616E67756C6F0D0AAB
S11311F8007820706172612073616C69720D0A0055
S113120833000D0A3D3D3D3D3D20524550524F446B
S11312185543495220504F534943494F4E45532053
S11312283D3D3D3D3D0D0A0031202D3E20506F735C
S11312386963696F6E20310D0A0032202D3E2050FB
S11312486F736963696F6E20320D0A0033202D3E77
S113125820506F736963696F6E20330D0A00342060
S11312682D3E20506F736963696F6E20340D0A0038
S113127835202D3E20506F736963696F6E20350DDC
S11312880A0078202D3E2073616C69720D0A0034BF
S1131298004D6F646F20414443204D616E75616C4D
S11312A80D0A00506F74656E63696F6D6574726FB3
S11312B8732061637469766F730D0A0035000D0A33
S11312C83D3D3D3D3D2045444954415220504F53F6
S11312D84943494F4E4553203D3D3D3D3D0D0A0090
S11312E831202D3E2045646974617220506F736902
S11312F863696F6E20310D0A0032202D3E2045644B
S11313086974617220506F736963696F6E20320D5E
S11313180A0033202D3E2045646974617220506FA1
S1131328736963696F6E20330D0A0034202D3E20E3
S113133845646974617220506F736963696F6E20C4
S1131348340D0A0035202D3E2045646974617220ED
S1131358506F736963696F6E20350D0A004F7063AF
S1131368696F6E20696E76616C6964610D0A004963
S1131378313A0044313A0049323A0044323A00786A
S113138800436F6D616E646F20696E76616C696489
S11313986F0D0A004D313A004D323A0053616C69C1
S11313A8656E646F206D6F646F204144430D0A00BD
S11313B8526570726F64756369656E646F20506FEF
S11313C8736963696F6E20310D0A00506F73696326
S11313D8696F6E2061706C69636164610D0A005203
S11313E86570726F64756369656E646F20506F739E
S11313F86963696F6E20320D0A00526570726F64FA
S1131408756369656E646F20506F736963696F6E85
S113141820330D0A00526570726F64756369656ED6
S1131428646F20506F736963696F6E20340D0A000E
S1131438526570726F64756369656E646F20506F6E
S1131448736963696F6E20350D0A004564697461B8
S11314586E646F20506F736963696F6E20310D0A73
S11314680045646974616E646F20506F73696369C1
S11314786F6E20320D0A0045646974616E646F20D2
S1131488506F736963696F6E20330D0A0045646990
S113149874616E646F20506F736963696F6E203472
S11314A80D0A0045646974616E646F20506F736936
S10D14B863696F6E20350D0A000011
S9030000FC
