S017000050325F416E696D6174726F6E69635F2E7372656358
S11300000C9434000C9451000C9451000C94510045
S11300100C9451000C9451000C9451000C94170151
S11300200C9451000C9451000C9451000C94510008
S11300300C9451000C9451000C947A010C945100CE
S11300400C9451000C9451000C9417040C9451001E
S11300500C9451000C9451000C9451000C945100D8
S11300600C9451000C94510011241FBECFEFD8E022
S1130070DEBFCDBF13E0A0E0B1E0E2E0FAE002C0F1
S113008005900D92A63DB107D9F723E0A6EDB3E0A4
S113009001C01D92AC3FB207E1F70E946F000C94BF
S11300A0FF040C94000080E480937C0087E8809334
S11300B07A0008958770ECE7F0E09081987F892BAF
S11300C08083EAE7F0E080818064808380917A0015
S11300D086FDFCCF80917800909179000895F89482
S11300E084B1806384B985B18F7C85B90E94FE0197
S11300F00E946F010E94E2000E9406010E945300C8
S113010078940E942D028091DC03882321F01092C0
S1130110DC030E944E028091DD038330A1F782E06C
S11301200E945A005C0183E00E945A006C0184E042
S11301300E945A007C0185E00E945A008C0186E0EE
S11301400E945A00EC0187E00E945A004C01C5014C
S11301500E94F101B82EC6010E94F101D82EC701F8
S11301600E94F101F82EC8010E94F101182FCE015E
S11301700E94F101D82FC4010E94F101C82F8B2DD8
S11301800E94D2010E94FC008D2D0E94D2010E9487
S113019001018F2D0E94E20190E00E94C801812F8D
S11301A00E94E20190E00E94CD018D2F0E94E201A5
S11301B090E00E9465018C2F0E94E20190E00E9471
S11301C06A01A1CF84B1866084B982EA80938000F9
S11301D08AE1809381008FE39CE990938700809368
S11301E0860088EB9BE0909389008093880090932D
S11301F08B0080938A0008959093890080938800EF
S1130200089590938B0080938A0008958AB1886042
S11302108AB984B1886084B982E08093B000809305
S1130220B10097E29093B3008093700008951F92F9
S11302300F920FB60F9211242F933F938F939F9396
S11302408091D6039091D70301969093D70380931E
S1130250D6038091D6039091D703019731F48BB1E3
S113026088608BB985B1886085B92091D6033091B7
S1130270D70380910201909103012817390719F4DB
S11302808BB1877F8BB92091D6033091D7038091AE
S11302900001909101012817390719F485B1877F6E
S11302A085B98091D6039091D703883E934020F07E
S11302B01092D7031092D6039F918F913F912F9163
S11302C00F900FBE0F901F90189590930301809389
S11302D002010895909301018093000108958AB169
S11302E080668AB982E084BD85BD97E297BD80931C
S11302F06E0008951F920F920FB60F9211242F9340
S11303003F938F939F938091D8039091D903019643
S11303109093D9038093D8038091D8039091D90303
S1130320019731F48BB180648BB98BB180628BB946
S11303302091D8033091D90380910601909107014F
S11303402817390719F48BB18F7B8BB92091D80307
S11303503091D90380910401909105012817390740
S113036019F48BB18F7D8BB98091D8039091D90307
S1130370883E934020F01092D9031092D8039F91A5
S11303808F913F912F910F900FBE0F901F90189552
S1130390909307018093060108959093050180933B
S11303A004010895282F30E0A0EDB7E00E947E04F8
S11303B024EB30E040E050E00E945C04C90180532B
S11303C0984F0895282F30E0A2E3B0E00E947E0405
S11303D024EB30E040E050E00E945C04C901C29686
S11303E008959C01A4EBB0E00E947E042FEF33E05B
S11303F040E050E00E945C04822F08958AB18E7F11
S11304008AB98AB182608AB91092C00088E980935F
S1130410C10086E08093C20087E690E09093C50017
S11304208093C40008959091C00095FFFCCF809301
S1130430C60008950F931F93CF938C01C0E003C0AF
S11304400E941302CF5FF801EC0FF11D808181112E
S1130450F7CFCF911F910F91089587E492E00E9406
S11304601A0288E091E00E941A028CE291E00E9454
S11304701A0288E491E00E941A0288E691E00E9440
S11304801A028BE791E00E941A0285E991E00E942A
S11304901A0287E393E00E941A020895CF93809191
S11304A0DD0381116CC069EB71E088EE93E00E947A
S11304B0AB04892BE1F481E08093DD038BEB91E0C5
S11304C00E941A0289EC91E00E941A0285ED91E0E3
S11304D00E941A0281EE91E00E941A028DEE91E0D0
S11304E00E941A0289EF91E00E941A029EC168E0FC
S11304F072E088EE93E00E94AB04892BA1F482E0C1
S11305008093DD038AE092E00E941A028CE192E07B
S11305100E941A0288E292E00E941A0289EF91E096
S11305200E941A0282C164E372E088EE93E00E94A2
S1130530AB04892B29F486E392E00E941A0275C168
S11305406AE472E088EE93E00E94AB04892B81F4A4
S113055083E08093DD038CE492E00E941A028EE52E
S113056092E00E941A0287E792E00E941A025DC19B
S113057087E892E00E941A020E942D0256C18091DF
S1130580DD03813009F0CEC08091DA03811162C0AD
S113059069EB71E088EE93E00E94AB04892B61F46F
S11305A081E08093DA0389E992E00E941A0283EBE6
S11305B092E00E941A0239C168E072E088EE93E08A
S11305C00E94AB04892B61F482E08093DA038BEC04
S11305D092E00E941A0283EB92E00E941A0225C163
S11305E064E372E088EE93E00E94AB04892B61F42B
S11305F083E08093DA0385EE92E00E941A0283EB93
S113060092E00E941A0211C16AE472E088EE93E05B
S11306100E94AB04892B61F484E08093DA038FEFAA
S113062092E00E941A0283EB92E00E941A02FDC03B
S113063069E173E088EE93E00E94AB04892B29F40E
S11306401092DD030E942D02F0C08BE193E00E9422
S11306501A02EBC088EE93E00E948D04C82F853BFC
S113066008F0C4EB8091DA03823099F018F48130F9
S113067031F02EC08330B9F0843001F129C08C2FC1
S11306800E94D2010E94FC008CE293E00E941A02B4
S11306901FC08C2F0E94D2010E94010183E393E0CA
S11306A00E941A0215C08C2F0E94E20190E00E9461
S11306B0C8018AE393E00E941A020AC08C2F0E94A8
S11306C0E20190E00E94CD0181E493E00E941A02CD
S11306D04AE06EED73E08C2F90E00E94C2048EED30
S11306E093E00E941A0287E492E00E941A02109298
S11306F0DA0388E493E00E941A0283E693E00E94FE
S11307001A028DE693E00E941A0287E793E00E94A2
S11307101A0281E893E00E941A028BE893E00E9497
S11307201A0283C08091DD03823009F06AC043E07D
S113073050E068E973E088EE93E00E94B404892BEA
S113074011F58BEE93E00E948D04C82F853B08F0D1
S1130750C4EB8C2F0E94E20190E00E9465018CE9B9
S113076093E00E941A024AE06EED73E08C2F90E051
S11307700E94C2048EED93E00E941A0287E492E084
S11307800E941A0252C043E050E063EA73E088EE2C
S113079093E00E94B404892B11F58BEE93E00E9440
S11307A08D04C82F853B08F0C4EB8C2F0E94E20116
S11307B090E00E946A0187EA93E00E941A024AE0EC
S11307C06EED73E08C2F90E00E94C2048EED93E0F6
S11307D00E941A0287E492E00E941A0226C069E18C
S11307E073E088EE93E00E94AB04892B29F4109205
S11307F0DD030E942D0219C08EEA93E00E941A02C2
S113080014C08091DD03833081F469E173E088EEE4
S113081093E00E94AB04892B41F41092DD0381EC38
S113082093E00E941A020E942D02CF9108951F9214
S11308300F920FB60F9211242F933F934F935F9310
S11308406F937F938F939F93AF93BF93CF93EF93C4
S1130850FF93C091C6008C2F0E941302CB3361F426
S1130860E091DB03F0E0E851FC4F10821092DB03CF
S113087081E08093DC030EC08091DB03833150F46C
S1130880E091DB0381E08E0F8093DB03F0E0E8511D
S1130890FC4FC083FF91EF91CF91BF91AF919F9196
S11308A08F917F916F915F914F913F912F910F9015
S11308B00FBE0F901F901895A1E21A2EAA1BBB1B06
S11308C0FD010DC0AA1FBB1FEE1FFF1FA217B30718
S11308D0E407F50720F0A21BB30BE40BF50B661F2E
S11308E0771F881F991F1A9469F7609570958095F2
S11308F090959B01AC01BD01CF010895A29FB00169
S1130900B39FC001A39F700D811D1124911DB29F3F
S1130910700D811D1124911D0895FC0188279927CC
S1130920E89421912032E9F3293010F02E30C8F3F5
S11309302B3241F02D3239F4689404C00E94CD0466
S1130940820F911D219120532A30C0F31EF49095FB
S113095081959F4F0895FB01DC018D9101908019D1
S11309600110D9F3990B0895FB01DC01415050406B
S113097030F08D910190801919F40020B9F7881B8B
S1130980990B0895BB274A3031F4992322F4BDE230
S1130990909581959F4F0C94D6047AE0979F902D63
S11309A0879F802D910D11240895BB27FB015527A6
S11309B0AA27880F991FAA1FA41710F0A41B8395B8
S11309C05051B9F7A05DAA3308F0A95DA19300972F
S11309D079F7B111B1931192CB010C94EF04DC01BE
S11309E0FC01672F71917723E1F7329704C07C9162
S11309F06D9370836291AE17BF07C8F30895F8949E
S1050A00FFCF22
S1130A024B004B004B004B003D3D3D3D3D3D3D20E9
S1130A124D454E5520414E494D4154524F4E494346
S1130A224F203D3D3D3D3D3D3D0D0A0031202D3ED3
S1130A3220436F6E74726F6C206465204F6A6F730B
S1130A4220554152540D0A0032202D3E20436F6E30
S1130A5274726F6C206465205061727061646F738C
S1130A6220554152540D0A0033202D3E204C656519
S1130A727220454550524F4D0D0A0034202D3E2020
S1130A82436F6E74726F6C204D616E75616C2041A0
S1130A9244430D0A003D3D3D3D3D3D3D3D3D3D3D13
S1130AA23D3D3D3D3D3D3D3D3D3D3D3D3D3D3D3D70
S1130AB23D3D3D3D3D3D0D0A0031000D0A4D6F6443
S1130AC26F204F4A4F530D0A0049313A616E6775E0
S1130AD26C6F0D0A0044313A616E67756C6F0D0AD2
S1130AE20049323A616E67756C6F0D0A0044323AFE
S1130AF2616E67756C6F0D0A0078207061726120F7
S1130B0273616C69720D0A0032000D0A4D6F646FD5
S1130B12205041525041444F530D0A004D313A6125
S1130B226E67756C6F0D0A004D323A616E67756CB3
S1130B326F0D0A0033004C6579656E646F2045457C
S1130B4250524F4D2E2E2E0D0A0034004D6F646FFD
S1130B5220414443204D616E75616C0D0A00506F53
S1130B6274656E63696F6D6574726F73206163740B
S1130B7269766F730D0A00783B207061726120738D
S1130B82616C69720D0A004F7063696F6E20696E41
S1130B9276616C6964610D0A000D0A536572766FA1
S1130BA22049312073656C656363696F6E61646F9C
S1130BB20D0A00496E677265736520616E67756C14
S1130BC26F20302D3138303B0D0A000D0A53657207
S1130BD2766F2044312073656C656363696F6E615F
S1130BE2646F0D0A000D0A536572766F2049322034
S1130BF273656C656363696F6E61646F0D0A000DE2
S1130C020A536572766F2044322073656C656363A0
S1130C12696F6E61646F0D0A007800536572766FB6
S1130C2220696E76616C69646F0D0A004931202D6A
S1130C323E20004431202D3E20004932202D3E200A
S1130C42004432202D3E20000D0A53656C65636317
S1130C52696F6E65206F74726F20736572766F3A76
S1130C620D0A0031202D3E2049310D0A0032202D7B
S1130C723E2044310D0A0033202D3E2049320D0A14
S1130C820034202D3E2044320D0A0078202D3E20CF
S1130C9273616C69720D0A004D313A004D31202D99
S1130CA23E20004D323A004D32202D3E2000436F4B
S1130CB26D616E646F20696E76616C69646F0D0A92
S1130CC20053616C69656E646F206D6F646F2041BF
S1090CD244430D0A00007A
S9030000FC
